:100000000C944B000C94CC070C94CC070C94CC07AC
:100010000C94CC070C94CC070C9450070C9405035B
:100020000C94CC070C94CC070C94CC070C94CC0704
:100030000C94CC070C94CC070C94CC070C94CC07F4
:100040000C94CC070C94CC070C94CC070C94CC07E4
:100050000C94CC070C94CC070C94CC070C94CC07D4
:100060000C94CC070C94CC070C94CC070C94CC07C4
:100070000C94CC070C94CC070C94CC070C94CC07B4
:100080000C94CC070C94CC070C94CC070C94CC07A4
:100090003000310B800011241FBECFEFCDBFDFE356
:1000A000DEBFE0E9F0E040E017C0B591A5913591E1
:1000B0002591059107FD0CC095918591EF01F92FD0
:1000C000E82F05900D92A217B307D9F7FE0104C0DF
:1000D0001D92A217B307E1F7E539F40731F70E9443
:0A00E00037020C945D07F894FFCF7F
:1000EA00CF93DF9300D0CDB7DEB70E949E06E0E043
:1000FA00F4E08181846081838181877F8183838920
:10010A008260838B84818460848382EC92EA019783
:10011A00F1F700C084818B7F848381E493E00197A7
:10012A00F1F700008481846084838DE890E201976E
:10013A00F1F700000E949C07BE016F5F7F4F82E4C7
:10014A000E9470068981823109F040C00E94A80786
:10015A0060E881E00E94B40660E47EE08FEC99E1F9
:10016A000E94610360E08EE00E94B40660E08FE0C6
:10017A000E94B406BE016E5F7F4F8CE00E9470063B
:10018A006A8163608CE00E94B40664E086E20E94A1
:10019A00B40660E080E40E94B40687E00E94D105BC
:1001AA0087E00E94ED0581E00E94090684E10E9431
:1001BA006D050E94C9060E94AD0782EC92EA01977A
:1001CA00F1F700C00E94B70780E001C081E00F90FC
:0801DA000F90DF91CF91089511
:1001E20010C00E94880758F00E94810740F029F44D
:1001F2005F3F29F00C94A20751110C9490070C94C4
:10020200C9070E94910568F39923B1F3552391F32D
:10021200951B550BBB27AA2762177307840738F073
:100222009F5F5F4F220F331F441FAA1FA9F335D0D0
:100232000E2E3AF0E0E832D091505040E695001C84
:10024200CAF72BD0FE2F29D0660F771F881FBB1F3E
:10025200261737074807AB07B0E809F0BB0B802D1C
:10026200BF01FF2793585F4F3AF09E3F510578F048
:100272000C94A2070C9490075F3FE4F3983ED4F3EA
:10028200869577956795B795F7959F5FC9F7880F1C
:10029200911D9695879597F90895E1E0660F771F6E
:1002A200881FBB1F621773078407BA0720F0621BFF
:0E02B200730B840BBA0BEE1F88F7E0950895CE
:1002C0001F93CF93DF9300D000D0CDB7DEB78091DE
:1002D0000931882309F45AC0BE016D5F7F4F82E166
:1002E0000E9470066B8182E10E94B4068B8185FFBB
:1002F0000DC0E0910731F0910831309709F444C006
:1003000040E260E080E090E009953EC086FF3CC09E
:10031000BE016C5F7F4F83E10E947006BE016E5F7D
:100320007F4F80E10E9470066A818DE00E94B406D2
:1003300014E0BE016F5F7F4F80E00E947006115095
:10034000C1F72C81822F90E00497181619068CF4BF
:1003500060E070E06050704D80E00E9470061F5FAA
:10036000612F70E02C81822F90E004976817790745
:100370008CF3E0910731F0910831309729F040E497
:10038000622F80E090E30995109209312496CDBF49
:0A039000DEBFDF91CF911F910895A9
:10039A000FC00E94810738F00E94880720F0952339
:1003AA0011F00C94A2070C94C90711240C9490071D
:1003BA000E94910570F3959FC1F3950F50E0551F68
:1003CA00629FF001729FBB27F00DB11D639FAA27A0
:1003DA00F00DB11DAA1F649F6627B00DA11D661FEF
:1003EA00829F2227B00DA11D621F739FB00DA11D10
:1003FA00621F839FA00D611D221F749F3327A00DCA
:10040A00611D231F849F600D211D822F762F6A2F65
:10041A0011249F5750409AF0F1F088234AF0EE0FCA
:10042A00FF1FBB1F661F771F881F91505040A9F7F7
:10043A009E3F510580F00C94A2070C9490075F3FF1
:10044A00E4F3983ED4F3869577956795B795F79533
:10045A00E7959F5FC1F7FE2B880F911D96958795AB
:04046A0097F9089561
:10046E00E0E4F4E080818160808360E875E280E002
:10047E0090E00E94E8040E941607882329F087E284
:10048E0098E40E948706FFCF82E498E40E948706D4
:10049E000E947500882329F081E698E40E94870661
:1004AE00FFCF8DE798E40E94870686E495E00E94D0
:1004BE00B2077894C0E4D4E00E94600180910331C9
:1004CE0090910431A0910531B09106314091FF30E9
:1004DE00509100316091013170910231841B950B66
:1004EE00A60BB70B853F9140A105B10538F0809161
:1004FE000A31882319F08C8181608C8381E493E02A
:10050E000197F1F700008091033190910431A09191
:10051E000531B09106310196A11DB11D80930331B5
:0E052E0090930431A0930531B0930631C5CFF0
:10053C0011C00E94810738F00E94880720F039F41E
:10054C009F3F19F426F40C94C9070EF4E095E7FBD1
:10055C000C94A207E92F0E94910558F3BA17620771
:10056C0073078407950720F079F4A6F50C948F0790
:10057C000EF4E0950B2EBA2FA02D0B01B9019001B2
:10058C000C01CA01A0011124FF27591B99F0593FF6
:10059C0050F4503E68F11A16F040A22F232F342F3E
:1005AC004427585FF3CF469537952795A795F0408C
:1005BC005395C9F77EF41F16BA0B620B730B840BA1
:1005CC00BAF09150A1F0FF0FBB1F661F771F881F59
:1005DC00C2F70EC0BA0F621F731F841F48F48795B1
:1005EC0077956795B795F7959E3F08F0B0CF9395A3
:0E05FC00880F08F09927EE0F979587950895C0
:10060A001F920F920FB60F9211242F933F934F937D
:10061A005F936F937F938F939F93AF93BF93EF9360
:10062A00FF93CF93DF93CDB7DEB72997CDBFDEBF58
:10063A0089E0EBEAF8E4DE01119601900D928A95C1
:10064A00E1F769E0CE0101960E94B6038DE998E4CC
:10065A000E94870610920A31E0E4F4E084818E7FDA
:10066A0084838091033190910431A0910531B09136
:10067A0006318093FF3090930031A0930131B093FB
:10068A000231E0E0FAE08385817083872996CDBF45
:10069A00DEBFDF91CF91FF91EF91BF91AF919F9113
:1006AA008F917F916F915F914F913F912F910F9011
:0806BA000FBE0F901F90189570
:1006C200AF92BF92CF92DF92EF92FF920F931F935E
:1006D200CF93DF93DC01CB01282F392F4A2F5B2FD9
:1006E20060E070E080E090E003E10E945706A12CF8
:1006F2000F2EF8E4BF2EF02D0F2EF8EECF2EF02D98
:10070200DD24D394E12CF12C00E010E00E943607A6
:10071200C22FB32EC42ED52EE62EF72E182FD92F88
:1007220000E10E94B505622F86E00E94B4062C2FDC
:100732003B2D4C2D5D2D6E2D7F2D812F9D2F08E0A1
:100742000E94B505622F87E00E94B4066C2F88E0F4
:100752000E94B406DF91CF911F910F91FF90EF900D
:0A076200DF90CF90BF90AF90089594
:10076C00AF92BF92DF92EF92FF920F931F93CF93B2
:10077C00DF930F92CDB7DEB76623D1F1D62E5C0195
:10078C000E94AD0760E08DE00E94B40685019FEFEA
:10079C009D0DE92EF12C8FEFE81AF80AEA0CFB1CE0
:1007AC00F80161918F0180E00E94B4060E151F05BF
:1007BC00B9F76D2D82E20E94B40663E881E00E94D5
:1007CC00B406BE016F5F7F4F82E10E9470066981A3
:1007DC0063FD09C0BE016F5F7F4F82E10E9470060E
:1007EC00698163FFF7CF82E10E94B4060E94B707CC
:1007FC000F90DF91CF911F910F91FF90EF90DF90B1
:06080C00BF90AF900895BB
:1008120052656365697665643A202200220D0A00FA
:100822007374616C0052544320636F756C64206E64
:100832006F7420696E697469616C6973650D0A0071
:10084200525443207375636365737366756C6C7978
:1008520020696E697469616C697365640D0A006C64
:100862006F726120636F756C64206E6F7420696EA5
:10087200697469616C6973650D0A006C6F7261203D
:100882007375636365737366756C6C7920696E69E1
:100892007469616C697365640D0A0073656E742016
:1008A20022636F726B220D0A00FFFFFFFF636F72FC
:0208B2006B00D9
:1008B40088249924F401E401B0E49F93AA279A15AB
:1008C4008B049C04ED05FE05CF05D007A10798F421
:1008D400AD2FDC2FCF2FFE2FE92D982C892E982FAA
:1008E400872F762F652F542F432F322F2227B8506E
:1008F40031F7BF9127C01B2EBF91BB27220F331F97
:10090400441F551F661F771F881F991F881C991C39
:10091400EE1FFF1FCC1FDD1FAA1FBB1F8A149B04E1
:10092400EC05FD05CE05DF05A007B10748F08A18E0
:100934009B08EC09FD09CE09DF09A00BB10B21606E
:100944001A94E1F62EF49401AF01BE01CD01000C1E
:02095400089504
:10095600E89409C097FB3EF4909580957095619553
:100966007F4F8F4F9F4F9923A9F0F92F96E9BB2709
:100976009395F695879577956795B795F111F8CF85
:10098600FAF4BB0F11F460FF1BC06F5F7F4F8F4FF0
:100996009F4F16C0882311F096E911C0772321F0E6
:1009A6009EE8872F762F05C0662371F096E8862F7E
:1009B60070E060E02AF09A95660F771F881FDAF7D5
:0A09C600880F9695879597F908951C
:1009D000E0EAF4E020812160208320812D7F2083C4
:1009E0000E94AB0420E030E040E851E40E94C507DB
:1009F0009B01AC0164E573E78BE49DE40E94C107B1
:100A000020E030E040E05FE30E947B070E94170592
:100A1000E0E4F8E0608771878681806C868383E0FC
:0E0A2000878380ED9EE40E94870680E00895A3
:100A2E000E94990588F09F5798F0B92F9927B751D2
:100A3E00B0F0E1F0660F771F881F991F1AF0BA9574
:100A4E00C9F714C0B13091F00E948F07B1E008953C
:100A5E000C948F07672F782F8827B85F39F0B93F2E
:100A6E00CCF3869577956795B395D9F73EF4909527
:0E0A7E008095709561957F4F8F4F9F4F089523
:100A8C00CF93DF93403201F1EC0182E198E40E94B4
:100A9C008706CE010E9487068EE198E40E948706A5
:100AAC0060E070E0CE010E944207892B19F081E0D2
:100ABC0080930A3162E278E4CE010E944207892BCE
:0E0ACC0019F481E080930A31DF91CF910895F3
:100ADA00CF93C82F86E90E942406C23170F067E8D6
:100AEA008DE40E94B406C53108F0C4E1C5506C2FEC
:100AFA00606889E00E94B4060DC0C23008F4C2E002
:100B0A0064E88DE40E94B4066EEF6C0F606889E0B9
:080B1A000E94B406CF9108957A
:100B220057FD9058440F551F59F05F3F71F047959C
:100B3200880F97FB991F61F09F3F79F08795089581
:100B4200121613061406551FF2CF4695F1DF08C0A0
:100B5200161617061806991FF1CF869571056105BD
:040B62000894089556
:100B660097FB10F8169400080F93083098F0085079
:100B7600232F342F452F562F672F782F892F902D0F
:100B8600F4CF0594979587957795679557954795EB
:0C0B9600379527950A95AAF70F9108954E
:100BA2001F93CF93DF930F92CDB7DEB7182FBE01FD
:100BB2006F5F7F4F8DE10E94700669816F7020E147
:100BC200129FC0011124682B8DE10E94B4060F9080
:080BD200DF91CF911F910895FE
:100BDA001F93CF93DF930F92CDB7DEB7182FBE01C5
:100BEA006F5F7F4F8EE10E94700669816F7020E10E
:100BFA00129FC0011124682B8EE10E94B4060F9047
:080C0A00DF91CF911F910895C5
:100C12001F93CF93DF930F92CDB7DEB7182FBE018C
:100C22006F5F7F4F8DE10E9470066981962F917FE1
:100C3200612F660F692B8DE10E94B4060F90DF9140
:060C4200CF911F910895FF
:100C4800813FB0F4893738F490E08D9765E070E023
:100C58000E94DD0606C090E04E966AE070E00E94B1
:100C6800DD066F7160628BE00E94B40681E0089532
:040C780080E008957B
:100C7C00E0ECF8E084838381882324F40AC0019794
:100C8C0029F40DC089EE93E0E0ECF8E023812223F7
:100C9C00B4F78091C408FB01808380E0089581E063
:020CAC000895A9
:100CAE000F93083090F0982F872F762F652F542FA3
:100CBE00432F322F22270850F4CF220F331F441F09
:100CCE00551F661F771F881F991F0A95B2F70F9140
:020CDE00089577
:100CE0000F931F93CF93C82F8B010E9496078C2FD1
:100CF0008F770E942607C82FC8010E94BC07C82B07
:0E0D00000E949C078C2FCF911F910F91089598
:100D0E000F931F93CF93FC018081882359F08F019D
:100D1E00C0E00E947207CF5FF801EC0FF11D8081D9
:0E0D2E008111F7CF80E0CF911F910F910895B2
:100D3C00E0E0F4E080818061808380818F7D80831E
:100D4C00808180648083808180688083E0ECF8E01F
:0C0D5C0081E380838181818380E0089521
:100D6800CF93DF93C82FD62F0E9496078C2F8068C9
:100D78000E942607C82F8D2F0E942607C82B0E9485
:0A0D88009C078C2FDF91CF91089596
:100D9200CF93DF930F92CDB7DEB7BE016F5F7F4F68
:100DA2008DE10E94700669816E7F8DE10E94B4061A
:080DB2000F90DF91CF9108952D
:100DBA0097FB072E16F4009407D077FD09D00E94FE
:100DCA00F10607FC05D03EF4909581959F4F089552
:080DDA00709561957F4F0895AB
:100DE200AA1BBB1B51E107C0AA1FBB1FA617B7074F
:100DF20010F0A61BB70B881F991F5A95A9F780956B
:080E02009095BC01CD0108959B
:100E0A00092E0394000C11F4882352F0BB0F40F40E
:100E1A00BF2B11F460FF04C06F5F7F4F8F4F9F4F4E
:020E2A00089529
:100E2C00E0E0FAE081E08287118281858E7F818704
:100E3C008CED92E386A397A38DE0808380E00895E8
:100E4C00CF93DF930F92CDB7DEB7BE016F5F7F4FAD
:0C0E5C000E943E060F90DF91CF91089598
:100E6800689401C0E8948F929F92CF93DF930E9479
:0C0E78005A04DF91CF919F908F90089555
:100E8400DC01FB019D912191921303C09111FACFD2
:0C0E9400292F892F90E0821B91090895FE
:100EA0008F938091090483FF06C081E0809309310C
:0A0EB00088E0809309048F911895E3
:100EBA00EC010E94D1070E94D007CE010E94D207FE
:060ECA00CE010E94CE07DC
:100ED0007561727420696E697469616C69736564A7
:030EE0000D0A00F8
:100EE400E0E4F8E0948195FFFDCF809342080895F3
:0E0EF4005058BB27AA270E949E020C940507A7
:0E0F020000240A94161617061806090608950C
:0E0F100000240A94121613061406050608950E
:0E0F1E00E894BB2766277727CB0197F9089543
:0C0F2C00E0E0F4E084818F778483089576
:0C0F3800E0E0F4E0848180688483089588
:0C0F440097F99F6780E870E060E0089576
:0A0F500060E881E00E94B4060895F5
:0A0F5A0061E881E00E94B4060895EA
:0A0F6400809307319093083108953F
:0A0F6E0065E881E00E94B4060895D2
:0A0F7800BC0180E00E943E060895CF
:080F82000E94F1000C94050728
:080F8A000E94CD010C94050743
:060F92009FEF80EC0895C2
:040F98000C940000B5
:040F9C000E9473003C
:020FA0000895B2
:020FA2000895B0
:020FA4000895AE
:00000001FF
