:100000000C944B000C94DE100C94DE100C94DE105B
:100010000C94DE100C94DE100C9433100C948907B1
:100020000C94DE100C94DE100C94DE100C94DE1098
:100030000C94DE100C94DE100C94DE100C94DE1088
:100040000C94DE100C94DE100C94DE100C94DE1078
:100050000C94DE100C94DE100C94DE100C94DE1068
:100060000C94DE100C94DE100C94DE100C94DE1058
:100070000C94DE100C94DE100C94DE100C94DE1048
:100080000C94DE100C94DE100C94DE100C94DE1038
:1000900030003116800011241FBECFEFCDBFDFE34B
:1000A000DEBFE0E9F0E040E017C0B591A5913591E1
:1000B0002591059107FD0CC095918591EF01F92FD0
:1000C000E82F05900D92A217B307D9F7FE0104C0DF
:1000D0001D92A217B307E1F7E539F40731F70E9443
:0A00E00073020C944010F894FFCF57
:1000EA00AEE0B0E0EBE7F0E00C94ED0E4C016B01F2
:1000FA0019821A828FEF9FEF8B839C831D821E8247
:10010A004F83588729873A87A12CB12CD6016D9045
:10011A007C90F301EA0DFB1D808181110FC0D6018D
:10012A00ED93FC938081853209F0D3C13F01BFEF83
:10013A006B1A7B0AF6016082718219C0853279F3E3
:10014A00B401082E000C990B0E94E30A4FEFA41A7F
:10015A00B40ADCCF8C32ACF08D32F9F489819A8101
:10016A00816089839A833196D601ED93FC93D601F7
:10017A00ED91FC9180818B3269F789819A81846043
:10018A00F0CF803221F489819A818860EACF833264
:10019A0051F489819A818061E4CF803321F4898185
:1001AA009A818260DECFB701C6010E94C00C8D839E
:1001BA009E8397FF0BC029813A81B1E02B272983BF
:1001CA003A839195819591098D839E8389819A813C
:1001DA0080FF03C08D7F89839A83D601ED91FC91BC
:1001EA00119780818E3249F43196ED93FC93B701D1
:1001FA00C6010E94C00C8B839C83C6010E94D10D4C
:10020A00582ED601ED91FC918081082E000C990B95
:10021A000E947110893609F443C084F4833609F4C4
:10022A0002C134F4853209F427C18136E1F030C1C4
:10023A008436B1F188360CF4D9C02AC1803709F462
:10024A009AC03CF48E3609F4BCC08F3609F461C0FA
:10025A001FC1853709F440C0883709F476C083374F
:10026A0009F016C1F3C0652D70E0A701CE010B9607
:10027A000E940000892B09F426C1D601ED91FC9158
:10028A001197CF0101968D939C932081AE01455F12
:10029A005F4FBE016F5F7F4FC4010E94000010C113
:1002AA00652D70E0970141E050E0CE010B960E9467
:1002BA005D08892B09F407C1F601808191810196B5
:1002CA0080839183AE01455F5F4FBE016F5F7F4FB1
:1002DA00C4010E94CC05F4C0652D70E0970140E08E
:1002EA0050E0CE010B960E945D08892B09F4EBC001
:1002FA00D6018D919C91119701968D939C93AE0195
:10030A00455F5F4FBE016F5F7F4FC4010E942F0B95
:10031A00D7C0652D70E0970140E050E0CE010B9602
:10032A000E945D08892B09F4CEC0F6018081918173
:10033A00019680839183AE01455F5F4FBE016F5F77
:10034A007F4FC4010E949109BBC0652D70E09701DF
:10035A0040E050E0CE010B960E945D08892B09F41B
:10036A00B2C0D601ED91FC911197CF0101968D9300
:10037A009C9320811CC0970140E050E060EF70E040
:10038A00CE010B960E945D08892B09F49CC0F601E8
:10039A00808191810196808391838B859C85892BAD
:1003AA0029F420E030E046EB51E684C028E7AE01AC
:1003BA00455F5F4FBE016F5F7F4FC4010E94D0034C
:1003CA007FC0A501400F511F652D70E09701CE0136
:1003DA000B960E940000892B09F475C0D6018D91F5
:1003EA009C91119701968D939C9373C0652D70E033
:1003FA00A701CE010B960E940000892B09F463C065
:10040A00D601ED91FC911197CF0101968D939C93A2
:10041A002081AE01455F5F4FBE016F5F7F4FC40110
:10042A000E9400004DC0B0E85B124DC0F601808109
:10043A009181019680839183D701ED91FC91119767
:10044A00CF0102968D939C93808120C0B0E85B1205
:10045A003AC0F60180819181019680839183D70108
:10046A00ED91FC911197CF0102968D939C93408157
:10047A00518120E030E01EC0B0E85B1224C0F601D2
:10048A00208131812F5F3F4F208331838B870DC0BD
:10049A0085E28B87D6016D927C9219821A821D821F
:1004AA001E828FEF9FEF8B839C8321E030E0AE01A9
:1004BA00455F5F4FBE016F5F7F4FC4010E941B0DF6
:1004CA008A0D9B1D07C0F601808191810196808368
:0C04DA009183C5012E96EFE00C941E0FDC
:1004E600A0E4B4E08C9181608C93E0E6F4E0808136
:1004F6008062808380818068808380E094E0EC0164
:10050600288121602883C0EAD4E0288128602883D6
:100516002081226020832C912D7F2C9351962C9143
:100526005197286051962C9320812F7B2083268912
:100536002860268B248120622483248120682483DA
:10054600FC0124812E7F24838C81877F8C8360E845
:1005560075E280E090E00E94620C0E94EB0F882317
:1005660029F088EA9DE40E944A0FFFCF83EC9DE4C0
:100576000E944A0F0E945005882329F082EE9DE4CE
:100586000E944A0FFFCF8EEF9DE40E944A0F8EEB2A
:1005960094E00E94B810789400E414E0C0E6D4E039
:1005A600C12C6894DD24D2F80F2EF0EAEF2EF4E089
:1005B600FF2EF02DBB24B3940E941C07F801808502
:1005C60081FF06C080911231882309F4D3C001C08F
:1005D6008AE040910131509102316091033170916E
:1005E60004314F5F5F4F6F4F7F4F40930131509300
:1005F600023160930331709304318150809312313C
:10060600888586FF05C080911131882329F001C0B5
:100616008AE08150809311318091093190910A319D
:10062600A0910B31B0910C314091053150910631BA
:100636006091073170910831841B950BA60BB70B9F
:10064600853F9140A105B10540F080911531882381
:1006560021F0F8018481816084838091123188239E
:1006660009F454C0B092103180911331811190C0B9
:100676004091013150910231609103317091043102
:10068600413051056105710509F07DC0F60194817F
:100696009E7F9483F7019481977F948374C09C8195
:1006A60092609C83409101315091023160910331F7
:1006B60070910431483EF3E05F076105710541F42E
:1006C600F601948191609483F701948198609483F4
:1006D600909111319923A9F1811133C0493E5340BC
:1006E6006105710580F0F601848181608483F701DC
:1006F6008481886084830E94F10DB09213318C81CD
:100706008D7F8C831EC0B09213311BC08091103137
:100716008823B9F08C818D7F8C8380911331811170
:1007260008C0F60184818E7F8483F7018481877FE8
:10073600848380911131811102C01092133110927D
:10074600103181E493E00197F1F7000080910931BF
:1007560090910A31A0910B31B0910C310196A11DF7
:10076600B11D8093093190930A31A0930B31B09358
:100776000C3122CF109201311092023110920331C6
:10078600109204313DCF90911431911188CFD9CF79
:0A07960090911431911186CFD4CF59
:1007A000AFE0B0E0E6EDF3E00C94EA0E1C016B0163
:1007B00049835A832B83FB018281938184809580B6
:1007C00000811181A680B78097FD02C00D7F02C015
:1007D00081E090E0E981FA814080518062807380FD
:1007E0009801207133272C833D83740104FF08C0D6
:1007F000411451046104710419F032E0E31AF10864
:10080000F801E870FF27EE83FF8303FF03C0F1E0E8
:10081000EF1AF108F6010084F185E02D3197EE879B
:10082000FF87EA0DFB1D10829C012E193F092887C6
:100830003987C801827099278A879B87EB818E2F21
:10084000EE0F990B9C01215431092C873D872E8591
:100850003F852230310530F48C819D81892B09F050
:1008600042C05CC0411451046104710461F18E8581
:100870009F8501978E879F87C2018F7099278A3045
:10088000910514F4C09602C0895A9F4FEC85FD85EE
:100890007A9748F49C012062215631092A313105AA
:1008A00010F40E946010EE85FF85EA0DFB1D808329
:1008B000F1E0EF1AF10884E0769467945794479436
:1008C0008A95D1F7C4CF888599858E0D9F1D1816FE
:1008D00019066CF21E141F040CF0BECFEA85FB85CE
:1008E000EF2B29F6B9CFE981FA8180819181A2812C
:1008F000B381892B8A2B8B2B89F0EE85FF85EA0D3E
:10090000FB1D31972B8120838E859F8502978E87D3
:100910009F87FC01EA0DFB1D80E38083EE81FF8150
:10092000EF2B59F02E853F85215031092E873F87C7
:10093000F901EA0DFB1D80E28083F60140855185B7
:10094000415051092E853F85421B530BB9016A0D59
:100950007B1D9401C1010E94290C9C01F101808141
:10096000918190FF06C0F6018281938182179307DF
:0C0970000CF4C9012F96E2E10C941B0F5F
:10097C00EF92FF920F931F93CF93DF93CDB7DEB718
:10098C002A97CDBFDEBF403209F47AC08C018AE5CC
:10099C009DE40E944A0FC8010E944A0F86E69DE41E
:1009AC000E944A0F8AE69DE40E944A0F61EB71E0B7
:1009BC0080E090E00E94EE0C9F938F9381E79DE482
:1009CC009F938F93CE0101967C019F938F930E94EE
:1009DC00C80FC7010E944A0F84E79DE40E944A0F8A
:1009EC0069E77DE4C8010E9417100F900F900F90DB
:1009FC000F900F900F90892B69F4E0E6F4E084815E
:100A0C008062848384818F77848381E08093153125
:100A1C00809314316EE77DE4C8010E941710892B76
:100A2C0069F4E0E6F4E084818F7D848384818068BE
:100A3C00848381E0809315318093143163E87DE4E5
:100A4C00C8010E941710892B51F4E0E0F4E0848176
:100A5C0081608483E0EAF4E08481877F848368E8A2
:100A6C007DE4C8010E941710892B51F4E0E0F4E0FA
:100A7C0084818E7F8483E0EAF4E0848188608483BF
:100A8C002A96CDBFDEBFDF91CF911F910F91FF90C2
:040A9C00EF9008953A
:100AA000CF93DF9300D0CDB7DEB70E94610FE0E0B7
:100AB000F4E08181846081838181877F8183838960
:100AC0008260838B84818460848382EC92EA0197C4
:100AD000F1F700C084818B7F848381E493E00197E8
:100AE000F1F700008481846084838DE890E20197AF
:100AF000F1F700000E94A210BE016F5F7F4F82E4F9
:100B00000E94330F8981823109F040C00E94AE10EB
:100B100060E881E00E94770F60E47EE08FEC99E16D
:100B20000E94EA0960E08EE00E94770F60E08FE0AB
:100B30000E94770FBE016E5F7F4F8CE00E94330FE3
:100B40006A8163608CE00E94770F64E086E20E9415
:100B5000770F60E080E40E94770F87E00E944B0EE1
:100B600087E00E94670E81E00E94830E84E10E946C
:100B7000450D0E948C0F0E94B31082EC92EA0197FF
:100B8000F1F700C00E94BD1080E001C081E00F902D
:080B90000F90DF91CF91089551
:100B9800A2E0B0E0E2EDF5E00C94EA0E3C016B0156
:100BA800FB0122813381A480B58080819181898372
:100BB8009A8386809780FA01208031804280538012
:100BC800B201A10157FE07C044275527BA014219AF
:100BD80053096409750937FD03C08D7F89839A839A
:100BE800950157FC05C0898182FD02C083FF02C0C0
:100BF80021503109CE0101967C010AE010E0C601BE
:100C08000E942C0957FC03C0298122FF0AC00197C2
:100C1800F401E80FF91F57FC02C02BE209C02DE2CE
:100C280007C023FF06C00197F401E80FF91F20E26F
:100C3800208309811A81F601408551854150510967
:100C4800481B590BB401680F791F9501C3010E9415
:100C5800290C9C01F3018081918190FF06C0F60167
:100C680082819381821793070CF4C9012296E2E1ED
:040C78000C941B0FAE
:100C7C0010C00E94871058F00E94801040F029F498
:100C8C005F3F29F00C94A81051110C948F100C9408
:100C9C00D8100E948D0D68F39923B1F3552391F36D
:100CAC00951B550BBB27AA2762177307840738F0CF
:100CBC009F5F5F4F220F331F441FAA1FA9F335D02C
:100CCC000E2E3AF0E0E832D091505040E695001CE0
:100CDC00CAF72BD0FE2F29D0660F771F881FBB1F9A
:100CEC00261737074807AB07B0E809F0BB0B802D78
:100CFC00BF01FF2793585F4F3AF09E3F510578F0A4
:100D0C000C94A8100C948F105F3FE4F3983ED4F32E
:100D1C00869577956795B795F7959F5FC9F7880F77
:100D2C00911D9695879597F90895E1E0660F771FC9
:100D3C00881FBB1F621773078407BA0720F0621B5A
:0E0D4C00730B840BBA0BEE1F88F7E095089529
:100D5A0052656365697665643A202200220D0A00AD
:100D6A00525353493A20002564000D0A0D0A0073B4
:100D7A00746F70007374616C00646F6E65006361F8
:100D8A006E740053656E74202249474E49544522B9
:100D9A000D0A00FFFFFFFF49474E495445005254D0
:100DAA004320636F756C64206E6F7420696E69747A
:100DBA0069616C6973650D0A005254432073756347
:100DCA006365737366756C6C7920696E69746961A1
:100DDA006C697365640D0A006C6F726120636F75CC
:100DEA006C64206E6F7420696E697469616C6973D2
:100DFA00650D0A006C6F72612073756363657373A6
:100E0A0066756C6C7920696E697469616C69736561
:100E1A00640D0A0D0A0053656E742022636F726BAB
:0D0E2A00220D0A00FFFFFFFF636F726B00D7
:100E38001F93CF93DF9300D000D0CDB7DEB780915A
:100E48000F31882309F45AC0BE016D5F7F4F82E1DC
:100E58000E94330F6B8182E10E94770F8B8185FF9F
:100E68000DC0E0910D31F0910E31309709F444C076
:100E780040E260E080E090E009953EC086FF3CC01B
:100E8800BE016C5F7F4F83E10E94330FBE016E5F2E
:100E98007F4F80E10E94330F6A818DE00E94770FB7
:100EA80014E0BE016F5F7F4F80E00E94330F115046
:100EB800C1F72C81822F90E00497181619068CF43C
:100EC80060E070E06E5F7F4C80E00E94330F1F5F30
:100ED800612F70E02C81822F90E0049768177907C2
:100EE8008CF3E0910D31F0910E31309729F040E408
:100EF800622F82E090E3099510920F312496CDBFBE
:0A0F0800DEBFDF91CF911F91089525
:100F12001F920F920FB60F9211242F933F934F936C
:100F22005F936F937F938F939F93AF93BF93EF934F
:100F3200FF93CF93DF93CDB7DEB72997CDBFDEBF47
:100F420089E0EEE2FEE4DE01119601900D928A95AF
:100F5200E1F769E0CE0101960E943F0A80E29EE439
:100F62000E944A0F8091153181110AC0E0E6F4E037
:100F720084818062848384818068848310921431A6
:100F820010921531E0E4F4E084818E7F84838091B5
:100F9200093190910A31A0910B31B0910C318093BB
:100FA200053190930631A0930731B0930831E0E008
:100FB200FAE08385817083872996CDBFDEBFDF91FA
:100FC200CF91FF91EF91BF91AF919F918F917F91BF
:100FD2006F915F914F913F912F910F900FBE0F90A4
:040FE2001F901895AF
:100FE6000FC00E94801038F00E94871020F09523D1
:100FF60011F00C94A8100C94D81011240C948F1096
:101006000E948D0D70F3959FC1F3950F50E0551F0B
:10101600629FF001729FBB27F00DB11D639FAA2747
:10102600F00DB11DAA1F649F6627B00DA11D661F96
:10103600829F2227B00DA11D621F739FB00DA11DB7
:10104600621F839FA00D611D221F749F3327A00D71
:10105600611D231F849F600D211D822F762F6A2F0D
:1010660011249F5750409AF0F1F088234AF0EE0F72
:10107600FF1FBB1F661F771F881F91505040A9F79F
:101086009E3F510580F00C94A8100C948F105F3F82
:10109600E4F3983ED4F3869577956795B795F795DB
:1010A600E7959F5FC1F7FE2B880F911D9695879553
:0410B60097F9089509
:1010BA00CF93DF93DC01F90168387105F1F05CF434
:1010CA006138710561F164387105A1F16038710503
:1010DA0009F051C02FC0603C710509F441C0603F5E
:1010EA007105F1F1603A710509F045C0C081D181FD
:1010FA00CE0102968083918325C0C081D181CE0121
:10110A00029680839183452B39F04881042E000C86
:10111A00550B660B770B1CC0488150E029C0C08173
:10112A00D181CE01049680839183488159816A8155
:10113A007B810EC0C081D181CE01029680839183CA
:10114A00452BA1F048815981052E000C660B770BBF
:10115A004D935D936D937C93139781E090E00DC05E
:10116A00C081D181CE0102968083918348815981C1
:10117A0060E070E0EDCF80E090E0DF91CF910895DC
:10118A0011C00E94801038F00E94871020F039F4B4
:10119A009F3F19F426F40C94D8100EF4E095E7FB5F
:1011AA000C94A810E92F0E948D0D58F3BA17620704
:1011BA0073078407950720F079F4A6F50C948E102E
:1011CA000EF4E0950B2EBA2FA02D0B01B901900158
:1011DA000C01CA01A0011124FF27591B99F0593F9C
:1011EA0050F4503E68F11A16F040A22F232F342FE4
:1011FA004427585FF3CF469537952795A795F04032
:10120A005395C9F77EF41F16BA0B620B730B840B46
:10121A00BAF09150A1F0FF0FBB1F661F771F881FFE
:10122A00C2F70EC0BA0F621F731F841F48F4879556
:10123A0077956795B795F7959E3F08F0B0CF939548
:0E124A00880F08F09927EE0F97958795089565
:10125800A0E0B0E0E2E3F9E00C94EC0EDC01280138
:101268001696AD90BC901797F701808191811296E0
:10127800ED91FC9113971896CD91DC9119972197D0
:10128800F7FF02C0E1E0F0E0CA0DDB1D188269013A
:10129800A1E0B0E08F01021B130B4C01F2E08F229A
:1012A8009924052C000C66087708CE018A199B0939
:1012B800CA15DB0519F1411551056105710589F05C
:1012C800CB01BA01A30192010E94AF0DCA01A62F5A
:1012D800B72F605D6A9341E0C41AD108A901BC0127
:1012E800E4CF98012C0D3D1D121613064CF31C1467
:1012F8001D0434F48114910419F702C080E090E0D1
:10130800AB2B31F4F701208131812F7E208331838B
:0A131800CDB7DEB7E0E10C941D0F25
:10132200A2E0B0E0E7E9F9E00C94EE0E4C016B01AB
:10133200FB01228133816480758080819181898360
:101342009A83A680B78037FD03C08D7F89839A83F5
:10135200FA014081518162817381CE0101967C0143
:1013620008E010E09301C6010E942C09298124FFA4
:1013720006C00197F501E80FF91F20E320832981B8
:1013820023FF06C00197F501E80FF91F20E2208331
:1013920009811A81F6014085518541505109481B46
:1013A200590BB501680F791F9301C4010E94290CE2
:1013B2009C01F4018081918190FF06C0F601828137
:1013C2009381821793070CF4C9012296EEE00C94E4
:0213D2001F0FEB
:1013D400AF92BF92CF92DF92EF92FF920F931F933F
:1013E400CF93DF93DC01CB01282F392F4A2F5B2FBA
:1013F40060E070E080E090E003E10E94D10EA12C57
:101404000F2EF8E4BF2EF02D0F2EF8EECF2EF02D78
:10141400DD24D394E12CF12C00E010E00E940B10A9
:10142400C22FB32EC42ED52EE62EF72E182FD92F69
:1014340000E10E94120E622F86E00E94770F2C2F8B
:101444003B2D4C2D5D2D6E2D7F2D812F9D2F08E082
:101454000E94120E622F87E00E94770F6C2F88E0A3
:101464000E94770FDF91CF911F910F91FF90EF9022
:0A147400DF90CF90BF90AF90089575
:10147E00AF92BF92DF92EF92FF920F931F93CF9393
:10148E00DF930F92CDB7DEB76623D1F1D62E5C0176
:10149E000E94B31060E08DE00E94770F85019FEFF0
:1014AE009D0DE92EF12C8FEFE81AF80AEA0CFB1CC1
:1014BE00F80161918F0180E00E94770F0E151F05D4
:1014CE00B9F76D2D82E20E94770F63E881E00E94EA
:1014DE00770FBE016F5F7F4F82E10E94330F6981EC
:1014EE0063FD09C0BE016F5F7F4F82E10E94330F23
:1014FE00698163FFF7CF82E10E94770F0E94BD10D2
:10150E000F90DF91CF911F910F91FF90EF90DF9091
:06151E00BF90AF9008959C
:1015240088249924F401E401B0E49F93AA279A152E
:101534008B049C04ED05FE05CF05D007A10798F4A4
:10154400AD2FDC2FCF2FFE2FE92D982C892E982F2D
:10155400872F762F652F542F432F322F2227B850F1
:1015640031F7BF9127C01B2EBF91BB27220F331F1A
:10157400441F551F661F771F881F991F881C991CBD
:10158400EE1FFF1FCC1FDD1FAA1FBB1F8A149B0465
:10159400EC05FD05CE05DF05A007B10748F08A1864
:1015A4009B08EC09FD09CE09DF09A00BB10B2160F2
:1015B4001A94E1F62EF49401AF01BE01CD01000CA2
:0215C400089588
:1015C6000F931F93CF93DF93DB01109719F48FEFDF
:1015D6009FEF3DC02D913C91119730FF25C0169687
:1015E6004D915C91179714962D913C911597421742
:1015F600530778F41296ED91FC9113978083129617
:101606002D913C9113972F5F3F4F12962D933C934C
:10161600139716962D913C9117972F5F3F4F16966D
:101626002D933C93179713C01C96ED91FC911D9733
:10163600309769F2EB01092F182F0995892B39F696
:101646008E819F8101968E839F83812F902FDF91BC
:08165600CF911F910F9108953F
:10165E00A2E0B0E0E5E3FBE00C94EE0E5C016B0162
:10166E00FB012281338184809580808191818983E1
:10167E009A836680778037FD03C08D7F89839A8336
:10168E00FA014081518162817381CE0101967C0104
:10169E000AE010E09401C6010E942C0909811A810A
:1016AE00F6014085518541505109481B590BB30134
:1016BE00680F791F9401C5010E94290C9C01F50148
:1016CE008081918190FF06C0F601828193818217FD
:0E16DE0093070CF4C9012296EEE00C941F0F46
:1016EC00E89409C097FB3EF49095809570956195B0
:1016FC007F4F8F4F9F4F9923A9F0F92F96E9BB2766
:10170C009395F695879577956795B795F111F8CFE1
:10171C00FAF4BB0F11F460FF1BC06F5F7F4F8F4F4C
:10172C009F4F16C0882311F096E911C0772321F042
:10173C009EE8872F762F05C0662371F096E8862FDA
:10174C0070E060E02AF09A95660F771F881FDAF731
:0A175C00880F9695879597F9089578
:10176600A2E8B0E0E9EBFBE00C94F00E5C014A0164
:10177600CF57DF4F68837983C158D040C12CD12C15
:10178600CF57DF4FE881F981C158D0408081882347
:10179600E9F07401860120E830E0AE014F5F5F4F4B
:1017A600BE016F577F4FC5010E9475008C0D9D1DB0
:1017B6008C159D054CF48FE490E080930030909357
:1017C60001308FEF9FEF03C06C01DACFC601CE5711
:0817D600DF4FECE00C94210F41
:1017DE00A0E1B0E0E5EFFBE00C94F60EFB01BA01E0
:1017EE00AE014F5F5F4F7A0140E1D7011D924A95DE
:1017FE00E9F742E051E049835A838B839C83F7FFDC
:10180E0009C08FE490E080930030909301308FEF09
:10181E009FEF14C0A9018C013197ED83FE83C701A0
:10182E000E94030F4F8158852D813E814217530729
:10183E0008F49A01F801E20FF31F10826096E6E0B9
:04184E000C94270FC0
:10185200A0E0B0E0EFE2FCE00C94F00E6C015B0162
:101862007A01E901480181E08822992400FD03C040
:101872004217530750F0A701B501C6010E942E0E70
:10188200EC16FD0610F0C70117C08E010E191F09D4
:101892000115110541F0B60180E290E00E94E30AD1
:1018A20001501109F5CF8114910429F4A701B50162
:1018B200C6010E942E0ECE01CDB7DEB7ECE00C942D
:0218C200210FF4
:1018C400E0EAF4E020812160208320812D7F2083C1
:1018D4000E94760B20E030E040E851E40E94D010F2
:1018E4009B01AC0164E573E78BE49DE40E94CC109A
:1018F40020E030E040E05FE30E947A100E94910C07
:10190400E0E4F8E0608771878681806C868383E0F9
:0E19140087838CEA90E60E944A0F80E00895D7
:101922000E94950D88F09F5798F0B92F9927B751CB
:10193200B0F0E1F0660F771F881F991F1AF0BA9571
:10194200C9F714C0B13091F00E948E10B1E0089531
:101952000C948E10672F782F8827B85F39F0B93F23
:10196200CCF3869577956795B395D9F73EF4909524
:0E1972008095709561957F4F8F4F9F4F089520
:10198000DC01ED91FC91119780818A3221F080E099
:1019900090E03AE00EC03196ED93FC93DB01ED91BF
:1019A000FC911197CF0102968D939C938081918138
:1019B0000895ED91FC911197208120532A3068F40D
:1019C000389FA001399F500D1124CA01820F911D2B
:0C19D0003196ED93FC931197ECCF089535
:1019DC00CF92DF92EF92FF92CF93DF930F92CDB71E
:1019EC00DEB76B017C01BE016F5F7F4F8AE10E9405
:1019FC00330FC701B6010E94760B2AEE36E54AEF8B
:101A0C005DE40E94C71088231CF083E69FEF02C0A0
:101A1C008CE59FEF2981820F911D0F90DF91CF9163
:0A1A2C00FF90EF90DF90CF90089537
:101A3600A0E0B0E0E1E2FDE00C94F20E7C01FB01D7
:101A4600EA01C901A280B380C480D58000811181DA
:101A5600209711F4C8EAD1E6009719F4CE010E9446
:101A66002510B7FC04C0A816B90608F4C5019601EE
:101A7600AC01BE01C7010E94290CCDB7DEB7EAE072
:041A86000C94230F8A
:101A8A00CF93C82F86E90E949E0EC23170F067E894
:101A9A008DE40E94770FC53108F0C4E1C5506C2F60
:101AAA00606889E00E94770F0DC0C23008F4C2E076
:101ABA0064E88DE40E94770F6EEF6C0F606889E02E
:081ACA000E94770FCF910895EF
:101AD200990F0008550FAA0BE0E8FEEF161617063D
:101AE200E807F907C0F012161306E407F50798F0A5
:101AF200621B730B840B950B39F40A2661F0232BBE
:101B0200242B252B21F408950A2609F4A140A69539
:081B12008FEF811D811D089574
:101B1A0057FD9058440F551F59F05F3F71F0479594
:101B2A00880F97FB991F61F09F3F79F08795089579
:101B3A00121613061406551FF2CF4695F1DF08C098
:101B4A00161617061806991FF1CF869571056105B5
:041B5A00089408954E
:101B5E00A1E21A2EAA1BBB1BFD010DC0AA1FBB1FA3
:101B6E00EE1FFF1FA217B307E407F50720F0A21B15
:101B7E00B30BE40BF50B661F771F881F991F1A9482
:101B8E0069F760957095809590959B01AC01BD01AC
:041B9E00CF010895D6
:101BA200CF93DF93EC0190E0E92FF0E0EE0FFF1FFF
:101BB200EA56FF498081811102C081810EC0A8814D
:101BC200B9812C91821305C091811196A883B983A2
:101BD20001C09F5F9B3040F3892FDF91CF91089521
:101BE200CF93DF93CDB7DEB72B97CDBFDEBF8BE0B0
:101BF200EDE9FDE4DE01119601900D928A95E1F77F
:101C02006BE0CE0101960E943F0A8DE89DE40E949E
:0E1C12004A0F2B96CDBFDEBFDF91CF91089514
:101C200097FB10F8169400080F93083098F00850AE
:101C3000232F342F452F562F672F782F892F902D44
:101C4000F4CF059497958795779567955795479520
:0C1C5000379527950A95AAF70F91089583
:101C5C00A0E0B0E0E4E3FEE00C94F40E6C01EB01C8
:101C6C008A017B01E40EF51ECE15DF0541F089914A
:101C7C00B601082E000C990B0E94E30AF5CFC8019F
:0A1C8C00CDB7DEB7E8E00C94250F99
:101C96001F93CF93DF930F92CDB7DEB7182FBE01F8
:101CA6006F5F7F4F8DE10E94330F69816F7020E176
:101CB600129FC0011124682B8DE10E94770F0F90AF
:081CC600DF91CF911F910895F9
:101CCE001F93CF93DF930F92CDB7DEB7182FBE01C0
:101CDE006F5F7F4F8EE10E94330F69816F7020E13D
:101CEE00129FC0011124682B8EE10E94770F0F9076
:081CFE00DF91CF911F910895C1
:101D06001F93CF93DF930F92CDB7DEB7182FBE0187
:101D16006F5F7F4F8DE10E94330F6981962F917F10
:101D2600612F660F692B8DE10E94770F0F90DF916F
:061D3600CF911F910895FA
:101D3C00813FB0F4893738F490E08D9765E070E01E
:101D4C000E94A00F06C090E04E966AE070E00E94E0
:101D5C00A00F6F7160628BE00E94770F81E0089595
:041D6C0080E0089576
:101D7000E0ECF8E084838381882324F40AC001978F
:101D800029F40DC089EE93E0E0ECF8E023812223F2
:101D9000B4F78091C408FB01808380E0089581E05E
:021DA0000895A4
:101DA2000F93083090F0982F872F762F652F542F9E
:101DB200432F322F22270850F4CF220F331F441F04
:101DC200551F661F771F881F991F0A95B2F70F913B
:021DD200089572
:101DD4002F923F924F925F926F927F928F929F9237
:101DE400AF92BF92CF92DF92EF92FF920F931F9325
:101DF400CF93DF93CDB7DEB7CA1BDB0BCDBFDEBFFE
:021E040009943F
:101E0600A2E0B0E0E9E0FFE00C94F80E8C01498313
:101E16005A83AE014F5F5F4F0E94B30BF8012081DA
:101E260024FF02C08FEF9FEF2296E4E00C94290F67
:101E36002A88398848885F846E847D848C849B8454
:101E4600AA84B984C884DF80EE80FD800C811B8162
:101E5600AA81B981CE0FD11DCDBFDEBFED01089598
:101E66000F931F93CF93C82F8B010E949C108C2F2A
:101E76008F770E94FB0FC82FC8010E94C210C82B83
:0E1E86000E94A2108C2FCF911F910F910895F2
:101E94000F931F93CF93FC018081882359F08F0106
:101EA400C0E00E946910CF5FF801EC0FF11D808142
:0E1EB4008111F7CF80E0CF911F910F9108951B
:101EC200E0E0F4E080818061808380818F7D808387
:101ED200808180648083808180688083E0ECF8E088
:0C1EE20081E380838181818380E008958A
:101EEE00CF93DF93C82FD62F0E949C108C2F806823
:101EFE000E94FB0FC82F8D2F0E94FB0FC82B0E9434
:0A1F0E00A2108C2FDF91CF910895EF
:101F1800CF93DF930F92CDB7DEB7BE016F5F7F4FD0
:101F28008DE10E94330F69816E7F8DE10E94770FEA
:081F38000F90DF91CF91089595
:101F400097FB072E16F4009407D077FD09D00E9466
:101F5000B40F07FC05D03EF4909581959F4F0895EE
:081F6000709561957F4F089513
:101F6800AA1BBB1B51E107C0AA1FBB1FA617B707B7
:101F780010F0A61BB70B881F991F5A95A9F78095D3
:081F88009095BC01CD01089504
:101F9000A0E0B0E0EEECFFE00C94FA0EAE01475F7B
:101FA0005F4F6F8178858D819E810E949510E2E060
:041FB0000C942B0F53
:101FB400092E0394000C11F4882352F0BB0F40F453
:101FC400BF2B11F460FF04C06F5F7F4F8F4F9F4F93
:021FD40008956E
:101FD600E0E0FAE081E08287118281858E7F818749
:101FE6008CED92E386A397A38DE0808380E008952D
:101FF600CF93DF930F92CDB7DEB7BE016F5F7F4FF2
:0C2006000E94B80E0F90DF91CF9108955A
:10201200689401C0E8948F929F92CF93DF930E94BD
:0C202200920ADF91CF919F908F9008955B
:10202E00DC01FB019D912191921303C09111FACF16
:0C203E00292F892F90E0821B9109089542
:10204A00FC01AF014F5F5F4F2081222311F0FA019B
:0C205A00F8CF9F01281B390BC901089525
:102066008F938091090483FF06C081E080930F312E
:0A20760088E0809309048F9118950B
:10208000EC010E94E3100E94E210CE010E94E410D5
:06209000CE010E94E010E9
:1020960068076C094C836A9074A07AC000806888CF
:0620A60000846C82008141
:1020AC007561727420696E697469616C69736564B9
:0320BC000D0A000A
:1020C0009C01215631092A31310510F48F75992769
:0220D000089571
:1020D200E0E4F8E0948195FFFDCF809342080895F3
:1020E2009C01215431092A31310508F48062089596
:0E20F2005058BB27AA270E94C5080C94DA0F8D
:0E21000000240A9416161706180609060895FC
:0E210E0000240A9412161306140605060895FE
:0E211C00E894BB2766277727CB0197F9089533
:0E212A009A01AB016FEF7FE70E94EF0B089563
:0C213800E0E0F4E084818F778483089558
:0C214400E0E0F4E084818068848308956A
:0C21500097F99F6780E870E060E0089558
:0A215C0060E881E00E94770F08950B
:0A21660061E881E00E94770F089500
:0A21700080930D3190930E31089515
:0A217A0065E881E00E94770F0895E8
:0A218400BC0180E00E94B80E08952F
:0A218E000E94690D08F481E0089535
:082198000E943E060C94DA0FD0
:0821A0000E94F3070C94DA0F12
:0721A800286E756C6C290024
:0621B0009FEF80EC089592
:0621B600286E696C29008F
:0421BC000C9400007F
:0421C0000E94730006
:0221C40008957C
:0221C60008957A
:0221C800089578
:00000001FF
