:100000000C944B000C94C0070C94C0070C94C007D0
:100010000C94C0070C94C0070C9444070C9405037F
:100020000C94C0070C94C0070C94C0070C94C00734
:100030000C94C0070C94C0070C94C0070C94C00724
:100040000C94C0070C94C0070C94C0070C94C00714
:100050000C94C0070C94C0070C94C0070C94C00704
:100060000C94C0070C94C0070C94C0070C94C007F4
:100070000C94C0070C94C0070C94C0070C94C007E4
:100080000C94C0070C94C0070C94C0070C94C007D4
:100090003000310B800011241FBECFEFCDBFDFE356
:1000A000DEBFE0E9F0E040E017C0B591A5913591E1
:1000B0002591059107FD0CC095918591EF01F92FD0
:1000C000E82F05900D92A217B307D9F7FE0104C0DF
:1000D0001D92A217B307E1F7E539F40731F70E9443
:0A00E00037020C945107F894FFCF8B
:1000EA00CF93DF9300D0CDB7DEB70E949206E0E04F
:1000FA00F4E08181846081838181877F8183838920
:10010A008260838B84818460848382EC92EA019783
:10011A00F1F700C084818B7F848381E493E00197A7
:10012A00F1F700008481846084838DE890E201976E
:10013A00F1F700000E949007BE016F5F7F4F82E4D3
:10014A000E9464068981823109F040C00E949C079E
:10015A0060E881E00E94A80660E47EE08FEC99E105
:10016A000E94610360E08EE00E94A80660E08FE0D2
:10017A000E94A806BE016E5F7F4F8CE00E94640653
:10018A006A8163608CE00E94A80664E086E20E94AD
:10019A00A80660E080E40E94A80687E00E94C505E0
:1001AA0087E00E94E10581E00E94FD0584E10E944A
:1001BA0044050E94BD060E94A10782EC92EA0197BB
:1001CA00F1F700C00E94AB0780E001C081E00F9008
:0801DA000F90DF91CF91089511
:1001E20010C00E947C0758F00E94750740F029F465
:1001F2005F3F29F00C94960751110C9484070C94DC
:10020200BD070E94680568F39923B1F3552391F362
:10021200951B550BBB27AA2762177307840738F073
:100222009F5F5F4F220F331F441FAA1FA9F335D0D0
:100232000E2E3AF0E0E832D091505040E695001C84
:10024200CAF72BD0FE2F29D0660F771F881FBB1F3E
:10025200261737074807AB07B0E809F0BB0B802D1C
:10026200BF01FF2793585F4F3AF09E3F510578F048
:100272000C9496070C9484075F3FE4F3983ED4F302
:10028200869577956795B795F7959F5FC9F7880F1C
:10029200911D9695879597F90895E1E0660F771F6E
:1002A200881FBB1F621773078407BA0720F0621BFF
:0E02B200730B840BBA0BEE1F88F7E0950895CE
:1002C0001F93CF93DF9300D000D0CDB7DEB78091DE
:1002D0000931882309F45AC0BE016D5F7F4F82E166
:1002E0000E9464066B8182E10E94A8068B8185FFD3
:1002F0000DC0E0910731F0910831309709F444C006
:1003000040E260E080E090E009953EC086FF3CC09E
:10031000BE016C5F7F4F83E10E946406BE016E5F89
:100320007F4F80E10E9464066A818DE00E94A806EA
:1003300014E0BE016F5F7F4F80E00E9464061150A1
:10034000C1F72C81822F90E00497181619068CF4BF
:1003500060E070E06050704D80E00E9464061F5FB6
:10036000612F70E02C81822F90E004976817790745
:100370008CF3E0910731F0910831309729F040E497
:10038000622F80E090E30995109209312496CDBF49
:0A039000DEBFDF91CF911F910895A9
:10039A000FC00E94750738F00E947C0720F0952351
:1003AA0011F00C9496070C94BD0711240C94840741
:1003BA000E94680570F3959FC1F3950F50E0551F91
:1003CA00629FF001729FBB27F00DB11D639FAA27A0
:1003DA00F00DB11DAA1F649F6627B00DA11D661FEF
:1003EA00829F2227B00DA11D621F739FB00DA11D10
:1003FA00621F839FA00D611D221F749F3327A00DCA
:10040A00611D231F849F600D211D822F762F6A2F65
:10041A0011249F5750409AF0F1F088234AF0EE0FCA
:10042A00FF1FBB1F661F771F881F91505040A9F7F7
:10043A009E3F510580F00C9496070C9484075F3F09
:10044A00E4F3983ED4F3869577956795B795F79533
:10045A00E7959F5FC1F7FE2B880F911D96958795AB
:04046A0097F9089561
:10046E00E0E4F4E080818160808360E875E280E002
:10047E0090E00E94E6040E940A07882329F084EC8B
:10048E0098E40E947B06FFCF8FED98E40E947B06D6
:10049E000E947500882329F08EEF98E40E947B0657
:1004AE00FFCF8AE199E40E947B0688EA95E00E94DC
:1004BE00A6077894C0E4D4E00E94600180910331D5
:1004CE0090910431A0910531B09106314091FF30E9
:1004DE00509100316091013170910231841B950B66
:1004EE00A60BB70B853F9140A105B10538F0809161
:1004FE000A31882319F08C8181608C8381E493E02A
:10050E000197F1F700008091033190910431A09191
:10051E000531B09106310196A11DB11D80930331B5
:0E052E0090930431A0930531B0930631C5CFF0
:10053C0011C00E94750738F00E947C0720F039F436
:10054C009F3F19F426F40C94BD070EF4E095E7FBDD
:10055C000C949607E92F0E94680558F3BA176207A6
:10056C0073078407950720F079F4A6F50C9483079C
:10057C000EF4E0950B2EBA2FA02D0B01B9019001B2
:10058C000C01CA01A0011124FF27591B99F0593FF6
:10059C0050F4503E68F11A16F040A22F232F342F3E
:1005AC004427585FF3CF469537952795A795F0408C
:1005BC005395C9F77EF41F16BA0B620B730B840BA1
:1005CC00BAF09150A1F0FF0FBB1F661F771F881F59
:1005DC00C2F70EC0BA0F621F731F841F48F48795B1
:1005EC0077956795B795F7959E3F08F0B0CF9395A3
:0E05FC00880F08F09927EE0F979587950895C0
:10060A001F920F920FB60F9211242F933F934F937D
:10061A005F936F937F938F939F93AF93BF93EF9360
:10062A00FF93CF93DF93CDB7DEB72997CDBFDEBF58
:10063A0089E0E8E4F9E4DE01119601900D928A95C9
:10064A00E1F769E0CE0101960E94B6038AE399E4D4
:10065A000E947B0610920A31E0E4F4E084818E7FE6
:10066A0084838091033190910431A0910531B09136
:10067A0006318093FF3090930031A0930131B093FB
:10068A000231E0E0FAE08385817083872996CDBF45
:10069A00DEBFDF91CF91FF91EF91BF91AF919F9113
:1006AA008F917F916F915F914F913F912F910F9011
:0806BA000FBE0F901F90189570
:1006C200AF92BF92CF92DF92EF92FF920F931F935E
:1006D200CF93DF93DC01CB01282F392F4A2F5B2FD9
:1006E20060E070E080E090E003E10E944B06A12C04
:1006F2000F2EF8E4BF2EF02D0F2EF8EECF2EF02D98
:10070200DD24D394E12CF12C00E010E00E942A07B2
:10071200C22FB32EC42ED52EE62EF72E182FD92F88
:1007220000E10E948C05622F86E00E94A8062C2F11
:100732003B2D4C2D5D2D6E2D7F2D812F9D2F08E0A1
:100742000E948C05622F87E00E94A8066C2F88E029
:100752000E94A806DF91CF911F910F91FF90EF9019
:0A076200DF90CF90BF90AF90089594
:10076C00AF92BF92DF92EF92FF920F931F93CF93B2
:10077C00DF930F92CDB7DEB76623D1F1D62E5C0195
:10078C000E94A10760E08DE00E94A80685019FEF02
:10079C009D0DE92EF12C8FEFE81AF80AEA0CFB1CE0
:1007AC00F80161918F0180E00E94A8060E151F05CB
:1007BC00B9F76D2D82E20E94A80663E881E00E94E1
:1007CC00A806BE016F5F7F4F82E10E9464066981BB
:1007DC0063FD09C0BE016F5F7F4F82E10E9464061A
:1007EC00698163FFF7CF82E10E94A8060E94AB07E4
:1007FC000F90DF91CF911F910F91FF90EF90DF90B1
:06080C00BF90AF900895BB
:1008120088249924F401E401B0E49F93AA279A154D
:100822008B049C04ED05FE05CF05D007A10798F4C3
:10083200AD2FDC2FCF2FFE2FE92D982C892E982F4C
:10084200872F762F652F542F432F322F2227B85010
:1008520031F7BF9127C01B2EBF91BB27220F331F39
:10086200441F551F661F771F881F991F881C991CDC
:10087200EE1FFF1FCC1FDD1FAA1FBB1F8A149B0484
:10088200EC05FD05CE05DF05A007B10748F08A1883
:100892009B08EC09FD09CE09DF09A00BB10B216011
:1008A2001A94E1F62EF49401AF01BE01CD01000CC1
:0208B2000895A7
:1008B40052656365697665643A202200220D0A0058
:1008C40052544320636F756C64206E6F7420696E9C
:1008D400697469616C6973650D0A0052544320732D
:1008E40075636365737366756C6C7920696E69747E
:1008F40069616C697365640D0A006C6F72612063D1
:100904006F756C64206E6F7420696E697469616CB4
:100914006973650D0A006C6F72612073756363659A
:10092400737366756C6C7920696E697469616C693E
:100934007365640D0A0073656E742022636F726BB5
:0D094400220D0A00FFFFFFFF636F726B00C2
:10095200E89409C097FB3EF4909580957095619557
:100962007F4F8F4F9F4F9923A9F0F92F96E9BB270D
:100972009395F695879577956795B795F111F8CF89
:10098200FAF4BB0F11F460FF1BC06F5F7F4F8F4FF4
:100992009F4F16C0882311F096E911C0772321F0EA
:1009A2009EE8872F762F05C0662371F096E8862F82
:1009B20070E060E02AF09A95660F771F881FDAF7D9
:0A09C200880F9695879597F9089520
:1009CC00E0EAF4E020812160208320812D7F2083C8
:1009DC000E94A90420E030E040E851E40E94B907ED
:1009EC009B01AC0164E573E78BE49DE40E94B507C1
:1009FC0020E030E040E05FE30E946F070E941505A5
:100A0C00E0E4F8E0608771878681806C868383E000
:0E0A1C00878388EB9EE40E947B0680E00895AD
:100A2A000E94700588F09F5798F0B92F9927B751FF
:100A3A00B0F0E1F0660F771F881F991F1AF0BA9578
:100A4A00C9F714C0B13091F00E948307B1E008954C
:100A5A000C948307672F782F8827B85F39F0B93F3E
:100A6A00CCF3869577956795B395D9F73EF490952B
:0E0A7A008095709561957F4F8F4F9F4F089527
:100A8800CF93C82F86E90E941806C23170F067E834
:100A98008DE40E94A806C53108F0C4E1C5506C2F4A
:100AA800606889E00E94A8060DC0C23008F4C2E060
:100AB80064E88DE40E94A8066EEF6C0F606889E018
:080AC8000E94A806CF910895D9
:100AD00057FD9058440F551F59F05F3F71F04795EF
:100AE000880F97FB991F61F09F3F79F087950895D4
:100AF000121613061406551FF2CF4695F1DF08C0F3
:100B0000161617061806991FF1CF8695710561050F
:040B100008940895A8
:100B140097FB10F8169400080F93083098F00850CB
:100B2400232F342F452F562F672F782F892F902D61
:100B3400F4CF05949795879577956795579547953D
:0C0B4400379527950A95AAF70F910895A0
:100B5000CF93DF934032B1F0EC0184EB98E40E9434
:100B60007B06CE010E947B0680EC98E40E947B0607
:100B700060E070E0CE010E943607892B19F081E019
:0A0B800080930A31DF91CF910895B0
:100B8A001F93CF93DF930F92CDB7DEB7182FBE0115
:100B9A006F5F7F4F8DE10E94640669816F7020E16B
:100BAA00129FC0011124682B8DE10E94A8060F90A4
:080BBA00DF91CF911F91089516
:100BC2001F93CF93DF930F92CDB7DEB7182FBE01DD
:100BD2006F5F7F4F8EE10E94640669816F7020E132
:100BE200129FC0011124682B8EE10E94A8060F906B
:080BF200DF91CF911F910895DE
:100BFA001F93CF93DF930F92CDB7DEB7182FBE01A5
:100C0A006F5F7F4F8DE10E9464066981962F917F05
:100C1A00612F660F692B8DE10E94A8060F90DF9164
:060C2A00CF911F91089517
:100C3000813FB0F4893738F490E08D9765E070E03B
:100C40000E94D10606C090E04E966AE070E00E94D5
:100C5000D1066F7160628BE00E94A80681E0089562
:040C600080E0089593
:100C6400E0ECF8E084838381882324F40AC00197AC
:100C740029F40DC089EE93E0E0ECF8E0238122230F
:100C8400B4F78091C408FB01808380E0089581E07B
:020C94000895C1
:100C96000F93083090F0982F872F762F652F542FBB
:100CA600432F322F22270850F4CF220F331F441F21
:100CB600551F661F771F881F991F0A95B2F70F9158
:020CC60008958F
:100CC8000F931F93CF93C82F8B010E948A078C2FF5
:100CD8008F770E941A07C82FC8010E94B007C82B37
:0E0CE8000E9490078C2FCF911F910F910895BD
:100CF6000F931F93CF93FC018081882359F08F01B6
:100D0600C0E00E946607CF5FF801EC0FF11D8081FD
:0E0D16008111F7CF80E0CF911F910F910895CA
:100D2400E0E0F4E080818061808380818F7D808336
:100D3400808180648083808180688083E0ECF8E037
:0C0D440081E380838181818380E0089539
:100D5000CF93DF93C82FD62F0E948A078C2F8068ED
:100D60000E941A07C82F8D2F0E941A07C82B0E94B5
:0A0D700090078C2FDF91CF910895BA
:100D7A00CF93DF930F92CDB7DEB7BE016F5F7F4F80
:100D8A008DE10E94640669816E7F8DE10E94A8064A
:080D9A000F90DF91CF91089545
:100DA20097FB072E16F4009407D077FD09D00E9416
:100DB200E50607FC05D03EF4909581959F4F089576
:080DC200709561957F4F0895C3
:100DCA00AA1BBB1B51E107C0AA1FBB1FA617B70767
:100DDA0010F0A61BB70B881F991F5A95A9F7809583
:080DEA009095BC01CD010895B4
:100DF200092E0394000C11F4882352F0BB0F40F427
:100E0200BF2B11F460FF04C06F5F7F4F8F4F9F4F66
:020E1200089541
:100E1400E0E0FAE081E08287118281858E7F81871C
:100E24008CED92E386A397A38DE0808380E0089500
:100E3400CF93DF930F92CDB7DEB7BE016F5F7F4FC5
:0C0E44000E9432060F90DF91CF910895BC
:100E5000689401C0E8948F929F92CF93DF930E9491
:0C0E60000904DF91CF919F908F900895BE
:100E6C00DC01FB019D912191921303C09111FACFEA
:0C0E7C00292F892F90E0821B9109089516
:100E88008F938091090483FF06C081E08093093124
:0A0E980088E0809309048F911895FB
:100EA200EC010E94C5070E94C407CE010E94C6073A
:060EB200CE010E94C20700
:100EB8007561727420696E697469616C69736564BF
:030EC8000D0A0010
:100ECC00E0E4F8E0948195FFFDCF8093420808950B
:0E0EDC005058BB27AA270E949E020C94F906CC
:0E0EEA0000240A941616170618060906089525
:0E0EF80000240A941216130614060506089527
:0E0F0600E894BB2766277727CB0197F908955B
:0C0F1400E0E0F4E084818F77848308958E
:0C0F2000E0E0F4E08481806884830895A0
:0C0F2C0097F99F6780E870E060E008958E
:0A0F380060E881E00E94A806089519
:0A0F420061E881E00E94A80608950E
:0A0F4C008093073190930831089557
:0A0F560065E881E00E94A8060895F6
:0A0F6000BC0180E00E9432060895F3
:080F6A000E94F1000C94F9064D
:080F72000E94CD010C94F90668
:060F7A009FEF80EC0895DA
:040F80000C940000CD
:040F84000E94730054
:020F88000895CA
:020F8A000895C8
:020F8C000895C6
:00000001FF
