:100000000C944B000C9466070C9466070C946607DE
:100010000C9466070C9466070C94EA060C949E02F6
:100020000C9466070C9466070C9466070C9466079C
:100030000C9466070C9466070C9466070C9466078C
:100040000C9466070C9466070C9466070C9466077C
:100050000C9466070C9466070C9466070C9466076C
:100060000C9466070C9466070C9466070C9466075C
:100070000C9466070C9466070C9466070C9466074C
:100080000C9466070C9466070C9466070C9466073C
:1000900030003103800011241FBECFEFCDBFDFE35E
:1000A000DEBFE0E9F0E040E017C0B591A5913591E1
:1000B0002591059107FD0CC095918591EF01F92FD0
:1000C000E82F05900D92A217B307D9F7FE0104C0DF
:1000D0001D92A217B307E1F7E539F40731F70E9443
:0A00E000D5040C94F706F894FFCF46
:1000EA00CF93DF9300D0CDB7DEB70E943306E0E0AE
:1000FA00F4E08181846081838181877F8183838920
:10010A008260838B84818460848382EC92EA019783
:10011A00F1F700C084818B7F848381E493E00197A7
:10012A00F1F700008481846084838DE890E201976E
:10013A00F1F700000E943607BE016F5F7F4F82E42D
:10014A000E9405068981823109F040C00E94420757
:10015A0060E881E00E94490660E47EE08FEC99E164
:10016A000E94F70260E08EE00E94490660E08FE09C
:10017A000E944906BE016E5F7F4F8CE00E94050611
:10018A006A8163608CE00E94490664E086E20E940C
:10019A00490660E080E40E94490687E00E946605FD
:1001AA0087E00E94820581E00E949E0584E10E9408
:1001BA0002050E945E060E94470782EC92EA0197B6
:1001CA00F1F700C00E94510780E001C081E00F9062
:0801DA000F90DF91CF91089511
:1001E20010C00E94220758F00E941B0740F029F419
:1001F2005F3F29F00C943C0751110C942A070C9490
:1002020063070E94260568F39923B1F3552391F3FE
:10021200951B550BBB27AA2762177307840738F073
:100222009F5F5F4F220F331F441FAA1FA9F335D0D0
:100232000E2E3AF0E0E832D091505040E695001C84
:10024200CAF72BD0FE2F29D0660F771F881FBB1F3E
:10025200261737074807AB07B0E809F0BB0B802D1C
:10026200BF01FF2793585F4F3AF09E3F510578F048
:100272000C943C070C942A075F3FE4F3983ED4F3B6
:10028200869577956795B795F7959F5FC9F7880F1C
:10029200911D9695879597F90895E1E0660F771F6E
:1002A200881FBB1F621773078407BA0720F0621BFF
:0E02B200730B840BBA0BEE1F88F7E0950895CE
:1002C0001F93CF93DF9300D000D0CDB7DEB78091DE
:1002D0000131882309F45AC0BE016D5F7F4F82E16E
:1002E0000E9405066B8182E10E9449068B8185FF91
:1002F0000DC0E091FF30F0910031309709F444C017
:1003000040E260E080E090E009953EC086FF3CC09E
:10031000BE016C5F7F4F83E10E940506BE016E5FE8
:100320007F4F80E10E9405066A818DE00E944906A8
:1003300014E0BE016F5F7F4F80E00E940506115000
:10034000C1F72C81822F90E00497181619068CF4BF
:1003500060E070E06050704D80E00E9405061F5F15
:10036000612F70E02C81822F90E004976817790745
:100370008CF3E091FF30F0910031309729F040E4A8
:10038000622F80E090E30995109201312496CDBF51
:0A039000DEBFDF91CF911F910895A9
:10039A000FC00E941B0738F00E94220720F0952305
:1003AA0011F00C943C070C94630711240C942A074F
:1003BA000E94260570F3959FC1F3950F50E0551FD3
:1003CA00629FF001729FBB27F00DB11D639FAA27A0
:1003DA00F00DB11DAA1F649F6627B00DA11D661FEF
:1003EA00829F2227B00DA11D621F739FB00DA11D10
:1003FA00621F839FA00D611D221F749F3327A00DCA
:10040A00611D231F849F600D211D822F762F6A2F65
:10041A0011249F5750409AF0F1F088234AF0EE0FCA
:10042A00FF1FBB1F661F771F881F91505040A9F7F7
:10043A009E3F510580F00C943C070C942A075F3FBD
:10044A00E4F3983ED4F3869577956795B795F79533
:10045A00E7959F5FC1F7FE2B880F911D96958795AB
:04046A0097F9089561
:10046E0011C00E941B0738F00E94220720F039F4B9
:10047E009F3F19F426F40C9463070EF4E095E7FB06
:10048E000C943C07E92F0E94260558F3BA17620711
:10049E0073078407950720F079F4A6F50C942907C5
:1004AE000EF4E0950B2EBA2FA02D0B01B901900181
:1004BE000C01CA01A0011124FF27591B99F0593FC5
:1004CE0050F4503E68F11A16F040A22F232F342F0D
:1004DE004427585FF3CF469537952795A795F0405B
:1004EE005395C9F77EF41F16BA0B620B730B840B70
:1004FE00BAF09150A1F0FF0FBB1F661F771F881F28
:10050E00C2F70EC0BA0F621F731F841F48F487957F
:10051E0077956795B795F7959E3F08F0B0CF939571
:0E052E00880F08F09927EE0F9795879508958E
:10053C001F920F920FB60F9211242F933F934F934C
:10054C005F936F937F938F939F93AF93BF93EF932F
:10055C00FF93CF93DF93CDB7DEB72997CDBFDEBF27
:10056C0089E0EAE6F8E4DE01119601900D928A9595
:10057C00E1F769E0CE0101960E944C038FE598E407
:10058C000E941C0680910231882341F010920231A6
:10059C00E0E4F4E084818E7F848308C081E0809362
:1005AC000231E0E4F4E0848181608483E0E0FAE0ED
:1005BC008385817083872996CDBFDEBFDF91CF9174
:1005CC00FF91EF91BF91AF919F918F917F916F911F
:1005DC005F914F913F912F910F900FBE0F901F90F5
:0205EC00189560
:1005EE00AF92BF92CF92DF92EF92FF920F931F9333
:1005FE00CF93DF93DC01CB01282F392F4A2F5B2FAE
:10060E0060E070E080E090E003E10E94EC05A12C38
:10061E000F2EF8E4BF2EF02D0F2EF8EECF2EF02D6C
:10062E00DD24D394E12CF12C00E010E00E94DE06D4
:10063E00C22FB32EC42ED52EE62EF72E182FD92F5D
:10064E0000E10E944A05622F86E00E9449062C2F87
:10065E003B2D4C2D5D2D6E2D7F2D812F9D2F08E076
:10066E000E944A05622F87E00E9449066C2F88E09F
:10067E000E944906DF91CF911F910F91FF90EF904D
:0A068E00DF90CF90BF90AF90089569
:10069800AF92BF92DF92EF92FF920F931F93CF9387
:1006A800DF930F92CDB7DEB76623D1F1D62E5C016A
:1006B8000E94470760E08DE00E94490685019FEF90
:1006C8009D0DE92EF12C8FEFE81AF80AEA0CFB1CB5
:1006D800F80161918F0180E00E9449060E151F05FF
:1006E800B9F76D2D82E20E94490663E881E00E9415
:1006F8004906BE016F5F7F4F82E10E94050669814E
:1007080063FD09C0BE016F5F7F4F82E10E9405064D
:10071800698163FFF7CF82E10E9449060E94510771
:100728000F90DF91CF911F910F91FF90EF90DF9085
:06073800BF90AF90089590
:10073E0088249924F401E401B0E49F93AA279A1522
:10074E008B049C04ED05FE05CF05D007A10798F498
:10075E00AD2FDC2FCF2FFE2FE92D982C892E982F21
:10076E00872F762F652F542F432F322F2227B850E5
:10077E0031F7BF9127C01B2EBF91BB27220F331F0E
:10078E00441F551F661F771F881F991F881C991CB1
:10079E00EE1FFF1FCC1FDD1FAA1FBB1F8A149B0459
:1007AE00EC05FD05CE05DF05A007B10748F08A1858
:1007BE009B08EC09FD09CE09DF09A00BB10B2160E6
:1007CE001A94E1F62EF49401AF01BE01CD01000C96
:0207DE0008957C
:1007E0006275663A20000D0A0052544320636F750B
:1007F0006C64206E6F7420696E697469616C6973D2
:10080000650D0A0052544320737563636573736604
:10081000756C6C7920696E697469616C6973656463
:100820000D0A006C6F726120636F756C64206E6FCF
:100830007420696E697469616C6973650D0A006C76
:100840006F7261207375636365737366756C6C7921
:1008500020696E697469616C697365640D0A007260
:100860007463207469636B0D0A00FFFFFFFF636F01
:03087000726B00A8
:10087400E89409C097FB3EF4909580957095619536
:100884007F4F8F4F9F4F9923A9F0F92F96E9BB27EC
:100894009395F695879577956795B795F111F8CF68
:1008A400FAF4BB0F11F460FF1BC06F5F7F4F8F4FD3
:1008B4009F4F16C0882311F096E911C0772321F0C9
:1008C4009EE8872F762F05C0662371F096E8862F61
:1008D40070E060E02AF09A95660F771F881FDAF7B8
:0A08E400880F9695879597F90895FF
:1008EE00E0EAF4E020812160208320812D7F2083A7
:1008FE000E943A0420E030E040E851E40E945F0795
:10090E009B01AC0164E573E78BE49DE40E945B07F9
:10091E0020E030E040E05FE30E9415070E94A6044D
:10092E00E0E4F8E0608771878681806C868383E0DF
:0E093E00878384E09EE40E941C0680E00895FA
:10094C000E942E0588F09F5798F0B92F9927B75120
:10095C00B0F0E1F0660F771F881F991F1AF0BA9557
:10096C00C9F714C0B13091F00E942907B1E0089585
:10097C000C942907672F782F8827B85F39F0B93F77
:10098C00CCF3869577956795B395D9F73EF490950A
:0E099C008095709561957F4F8F4F9F4F089506
:1009AA00E0E4F4E080818160808360E875E280E0C1
:1009BA0090E00E9477040E94BE06882329F089EEFF
:1009CA0097E40E941C06FFCF84E098E40E941C066C
:1009DA000E947500882329F083E298E40E941C068D
:1009EA00FFCF8FE398E40E941C068AE996E00E94F2
:0A09FA004C0778940E946001FDCFC5
:100A0400CF93C82F86E90E94B905C23170F067E818
:100A14008DE40E944906C53108F0C4E1C5506C2F2D
:100A2400606889E00E9449060DC0C23008F4C2E043
:100A340064E88DE40E9449066EEF6C0F606889E0FB
:080A44000E944906CF910895BC
:100A4C0057FD9058440F551F59F05F3F71F0479573
:100A5C00880F97FB991F61F09F3F79F08795089558
:100A6C00121613061406551FF2CF4695F1DF08C077
:100A7C00161617061806991FF1CF86957105610594
:040A8C00089408952D
:100A900097FB10F8169400080F93083098F0085050
:100AA000232F342F452F562F672F782F892F902DE6
:100AB000F4CF0594979587957795679557954795C2
:0C0AC000379527950A95AAF70F91089525
:100ACC001F93CF93DF930F92CDB7DEB7182FBE01D4
:100ADC006F5F7F4F8DE10E94050669816F7020E189
:100AEC00129FC0011124682B8DE10E9449060F90C2
:080AFC00DF91CF911F910895D5
:100B04001F93CF93DF930F92CDB7DEB7182FBE019B
:100B14006F5F7F4F8EE10E94050669816F7020E14F
:100B2400129FC0011124682B8EE10E9449060F9088
:080B3400DF91CF911F9108959C
:100B3C001F93CF93DF930F92CDB7DEB7182FBE0163
:100B4C006F5F7F4F8DE10E9405066981962F917F23
:100B5C00612F660F692B8DE10E9449060F90DF9182
:060B6C00CF911F910895D6
:100B7200813FB0F4893738F490E08D9765E070E0FA
:100B82000E94720606C090E04E966AE070E00E94F3
:100B920072066F7160628BE00E94490681E00895DF
:040BA20080E0089552
:100BA600E0ECF8E084838381882324F40AC001976B
:100BB60029F40DC089EE93E0E0ECF8E023812223CE
:100BC600B4F78091C408FB01808380E0089581E03A
:020BD600089580
:100BD8000F93083090F0982F872F762F652F542F7A
:100BE800432F322F22270850F4CF220F331F441FE0
:100BF800551F661F771F881F991F0A95B2F70F9117
:020C080008954D
:100C0A000F931F93CF93C82F8B010E9430078C2F0D
:100C1A008F770E94CE06C82FC8010E945607C82B9C
:0E0C2A000E9436078C2FCF911F910F910895D5
:100C38000F931F93CF93FC018081882359F08F0174
:100C4800C0E00E940C07CF5FF801EC0FF11D808116
:0E0C58008111F7CF80E0CF911F910F91089589
:100C6600E0E0F4E080818061808380818F7D8083F5
:100C7600808180648083808180688083E0ECF8E0F6
:0C0C860081E380838181818380E00895F8
:100C9200CF93DF93C82FD62F0E9430078C2F806806
:100CA2000E94CE06C82F8D2F0E94CE06C82B0E940E
:0A0CB20036078C2FDF91CF910895D3
:100CBC00CF93DF930F92CDB7DEB7BE016F5F7F4F3F
:100CCC008DE10E94050669816E7F8DE10E944906C7
:080CDC000F90DF91CF91089504
:100CE40097FB072E16F4009407D077FD09D00E94D5
:100CF400860607FC05D03EF4909581959F4F089594
:080D0400709561957F4F089581
:100D0C00AA1BBB1B51E107C0AA1FBB1FA617B70725
:100D1C0010F0A61BB70B881F991F5A95A9F7809541
:080D2C009095BC01CD01089572
:100D3400CF93DF93403261F0EC0180EE97E40E94A0
:100D44001C06CE010E941C0686EE97E40E941C0637
:060D5400DF91CF9108952C
:100D5A00092E0394000C11F4882352F0BB0F40F4BF
:100D6A00BF2B11F460FF04C06F5F7F4F8F4F9F4FFF
:020D7A000895DA
:100D7C00E0E0FAE081E08287118281858E7F8187B5
:100D8C008CED92E386A397A38DE0808380E0089599
:100D9C00CF93DF930F92CDB7DEB7BE016F5F7F4F5E
:0C0DAC000E94D3050F90DF91CF910895B5
:100DB800689401C0E8948F929F92CF93DF930E942A
:0C0DC8009F03DF91CF919F908F900895C2
:100DD4008F938091090483FF06C081E080930131E1
:0A0DE40088E0809309048F911895B0
:100DEE00EC010E946B070E946A07CE010E946C07FD
:060DFE00CE010E9468070F
:100E04007561727420696E697469616C6973656473
:030E14000D0A00C4
:100E1800E0E4F8E0948195FFFDCF809342080895BF
:0E0E28005058BB27AA270E9437020C94AD0633
:0E0E360000240A9416161706180609060895D9
:0E0E440000240A9412161306140605060895DB
:0E0E5200E894BB2766277727CB0197F9089510
:0C0E6000E0E0F4E084818F778483089543
:0C0E6C00E0E0F4E0848180688483089555
:0C0E780097F99F6780E870E060E0089543
:0A0E840060E881E00E94490608952D
:0A0E8E0061E881E00E944906089522
:0A0E98008093FF309093003108951D
:0A0EA20065E881E00E94490608950A
:0A0EAC00BC0180E00E94D305089508
:080EB6000E94F1000C94AD064E
:080EBE000E94CD010C94AD0669
:060EC6009FEF80EC08958F
:040ECC000C94000082
:040ED0000E94730009
:020ED40008957F
:020ED60008957D
:020ED80008957B
:00000001FF
