:100000000C944B000C944D070C944D070C944D0729
:100010000C944D070C944D070C94D1060C94E103FD
:100020000C944D070C944D070C944D070C944D0700
:100030000C944D070C944D070C944D070C944D07F0
:100040000C944D070C944D070C944D070C944D07E0
:100050000C944D070C944D070C944D070C944D07D0
:100060000C944D070C944D070C944D070C944D07C0
:100070000C944D070C944D070C944D070C944D07B0
:100080000C944D070C944D070C944D070C944D07A0
:1000900030003102800011241FBECFEFCDBFDFE35F
:1000A000DEBFE0E9F0E040E017C0B591A5913591E1
:1000B0002591059107FD0CC095918591EF01F92FD0
:1000C000E82F05900D92A217B307D9F7FE0104C0DF
:1000D0001D92A217B307E1F7E539F40731F70E9443
:0A00E000C1040C94DE06F894FFCF73
:1000EA00CF93DF9300D0CDB7DEB70E941A06E0E0C7
:1000FA00F4E08181846081838181877F8183838920
:10010A008260838B84818460848382EC92EA019783
:10011A00F1F700C084818B7F848381E493E00197A7
:10012A00F1F700008481846084838DE890E201976E
:10013A00F1F700000E941D07BE016F5F7F4F82E446
:10014A000E94EC058981823109F040C00E9429078A
:10015A0060E881E00E94300660E47EE08FEC99E17D
:10016A000E949E0260E08EE00E94300660E08FE00E
:10017A000E943006BE016E5F7F4F8CE00E94EC0544
:10018A006A8163608CE00E94300664E086E20E9425
:10019A00300660E080E40E94300687E00E944D0548
:1001AA0087E00E94690581E00E94850584E10E943A
:1001BA00E9040E9445060E942E0782EC92EA019702
:1001CA00F1F700C00E94380780E001C081E00F907B
:0801DA000F90DF91CF91089511
:1001E20010C00E94090758F00E94020740F029F44B
:1001F2005F3F29F00C94230751110C9411070C94C2
:100202004A070E940D0568F39923B1F3552391F330
:10021200951B550BBB27AA2762177307840738F073
:100222009F5F5F4F220F331F441FAA1FA9F335D0D0
:100232000E2E3AF0E0E832D091505040E695001C84
:10024200CAF72BD0FE2F29D0660F771F881FBB1F3E
:10025200261737074807AB07B0E809F0BB0B802D1C
:10026200BF01FF2793585F4F3AF09E3F510578F048
:100272000C9423070C9411075F3FE4F3983ED4F3E8
:10028200869577956795B795F7959F5FC9F7880F1C
:10029200911D9695879597F90895E1E0660F771F6E
:1002A200881FBB1F621773078407BA0720F0621BFF
:0E02B200730B840BBA0BEE1F88F7E0950895CE
:1002C0001F93CF93DF9300D000D0CDB7DEB78091DE
:1002D0000131882309F45AC0BE016D5F7F4F82E16E
:1002E0000E94EC056B8182E10E9430068B8185FFC4
:1002F0000DC0E091FF30F0910031309709F444C017
:1003000040E260E080E090E009953EC086FF3CC09E
:10031000BE016C5F7F4F83E10E94EC05BE016E5F02
:100320007F4F80E10E94EC056A818DE00E943006DB
:1003300014E0BE016F5F7F4F80E00E94EC0511501A
:10034000C1F72C81822F90E00497181619068CF4BF
:1003500060E070E06050704D80E00E94EC051F5F2F
:10036000612F70E02C81822F90E004976817790745
:100370008CF3E091FF30F0910031309729F040E4A8
:10038000622F80E090E30995109201312496CDBF51
:0A039000DEBFDF91CF911F910895A9
:10039A000FC00E94020738F00E94090720F0952337
:1003AA0011F00C9423070C944A0711240C9411079A
:1003BA000E940D0570F3959FC1F3950F50E0551FEC
:1003CA00629FF001729FBB27F00DB11D639FAA27A0
:1003DA00F00DB11DAA1F649F6627B00DA11D661FEF
:1003EA00829F2227B00DA11D621F739FB00DA11D10
:1003FA00621F839FA00D611D221F749F3327A00DCA
:10040A00611D231F849F600D211D822F762F6A2F65
:10041A0011249F5750409AF0F1F088234AF0EE0FCA
:10042A00FF1FBB1F661F771F881F91505040A9F7F7
:10043A009E3F510580F00C9423070C9411075F3FEF
:10044A00E4F3983ED4F3869577956795B795F79533
:10045A00E7959F5FC1F7FE2B880F911D96958795AB
:04046A0097F9089561
:10046E0011C00E94020738F00E94090720F039F4EB
:10047E009F3F19F426F40C944A070EF4E095E7FB1F
:10048E000C942307E92F0E940D0558F3BA17620743
:10049E0073078407950720F079F4A6F50C941007DE
:1004AE000EF4E0950B2EBA2FA02D0B01B901900181
:1004BE000C01CA01A0011124FF27591B99F0593FC5
:1004CE0050F4503E68F11A16F040A22F232F342F0D
:1004DE004427585FF3CF469537952795A795F0405B
:1004EE005395C9F77EF41F16BA0B620B730B840B70
:1004FE00BAF09150A1F0FF0FBB1F661F771F881F28
:10050E00C2F70EC0BA0F621F731F841F48F487957F
:10051E0077956795B795F7959E3F08F0B0CF939571
:0E052E00880F08F09927EE0F9795879508958E
:10053C00AF92BF92CF92DF92EF92FF920F931F93E5
:10054C00CF93DF93DC01CB01282F392F4A2F5B2F60
:10055C0060E070E080E090E003E10E94D305A12C04
:10056C000F2EF8E4BF2EF02D0F2EF8EECF2EF02D1F
:10057C00DD24D394E12CF12C00E010E00E94C506A0
:10058C00C22FB32EC42ED52EE62EF72E182FD92F10
:10059C0000E10E943105622F86E00E9430062C2F6C
:1005AC003B2D4C2D5D2D6E2D7F2D812F9D2F08E029
:1005BC000E943105622F87E00E9430066C2F88E084
:1005CC000E943006DF91CF911F910F91FF90EF9019
:0A05DC00DF90CF90BF90AF9008951C
:1005E600AF92BF92DF92EF92FF920F931F93CF933A
:1005F600DF930F92CDB7DEB76623D1F1D62E5C011D
:100606000E942E0760E08DE00E94300685019FEF74
:100616009D0DE92EF12C8FEFE81AF80AEA0CFB1C67
:10062600F80161918F0180E00E9430060E151F05CA
:10063600B9F76D2D82E20E94300663E881E00E94E0
:100646003006BE016F5F7F4F82E10E94EC05698133
:1006560063FD09C0BE016F5F7F4F82E10E94EC051A
:10066600698163FFF7CF82E10E9430060E94380756
:100676000F90DF91CF911F910F91FF90EF90DF9038
:06068600BF90AF90089543
:10068C0088249924F401E401B0E49F93AA279A15D5
:10069C008B049C04ED05FE05CF05D007A10798F44B
:1006AC00AD2FDC2FCF2FFE2FE92D982C892E982FD4
:1006BC00872F762F652F542F432F322F2227B85098
:1006CC0031F7BF9127C01B2EBF91BB27220F331FC1
:1006DC00441F551F661F771F881F991F881C991C64
:1006EC00EE1FFF1FCC1FDD1FAA1FBB1F8A149B040C
:1006FC00EC05FD05CE05DF05A007B10748F08A180B
:10070C009B08EC09FD09CE09DF09A00BB10B216098
:10071C001A94E1F62EF49401AF01BE01CD01000C48
:02072C0008952E
:10072E006275663A20000D0A0052544320636F75BD
:10073E006C64206E6F7420696E697469616C697384
:10074E00650D0A00525443207375636365737366B7
:10075E00756C6C7920696E697469616C6973656416
:10076E000D0A006C6F726120636F756C64206E6F82
:10077E007420696E697469616C6973650D0A006C29
:10078E006F7261207375636365737366756C6C79D4
:10079E0020696E697469616C697365640D0A007213
:1007AE007463207469636B0D0A00FFFFFFFF636FB4
:0307BE00726B005B
:1007C2001F920F920FB60F9211242F933F934F93C4
:1007D2005F936F937F938F939F93AF93BF93EF93A7
:1007E200FF93CF93DF93CDB7DEB72997CDBFDEBF9F
:1007F20089E0E8EBF7E4DE01119601900D928A950B
:10080200E1F769E0CE0101960E94F3028DEA97E4D6
:100812000E940306E0E0FAE08385817083872996CF
:10082200CDBFDEBFDF91CF91FF91EF91BF91AF912D
:100832009F918F917F916F915F914F913F912F91F6
:0A0842000F900FBE0F901F90189545
:10084C00E89409C097FB3EF490958095709561955E
:10085C007F4F8F4F9F4F9923A9F0F92F96E9BB2714
:10086C009395F695879577956795B795F111F8CF90
:10087C00FAF4BB0F11F460FF1BC06F5F7F4F8F4FFB
:10088C009F4F16C0882311F096E911C0772321F0F1
:10089C009EE8872F762F05C0662371F096E8862F89
:1008AC0070E060E02AF09A95660F771F881FDAF7E0
:0A08BC00880F9695879597F9089527
:1008C600E0EAF4E020812160208320812D7F2083CF
:1008D6000E94260420E030E040E851E40E944607EA
:1008E6009B01AC0164E573E78BE49DE40E9442073B
:1008F60020E030E040E05FE30E94FC060E949204A4
:10090600E0E4F8E0608771878681806C868383E007
:0E091600878382ED9DE40E94030680E0089531
:100924000E94150588F09F5798F0B92F9927B75161
:10093400B0F0E1F0660F771F881F991F1AF0BA957F
:10094400C9F714C0B13091F00E941007B1E00895C6
:100954000C941007672F782F8827B85F39F0B93FB8
:10096400CCF3869577956795B395D9F73EF4909532
:0E0974008095709561957F4F8F4F9F4F08952E
:1009820060E875E280E090E00E9463040E94A506A0
:10099200882329F087E397E40E940306FFCF82E5CC
:1009A20097E40E9403060E947500882329F081E7DC
:1009B20097E40E940306FFCF8DE897E40E940306A6
:1009C20081E896E00E94330778940E946001FDCF8F
:1009D200CF93C82F86E90E94A005C23170F067E864
:1009E2008DE40E943006C53108F0C4E1C5506C2F79
:1009F200606889E00E9430060DC0C23008F4C2E08F
:100A020064E88DE40E9430066EEF6C0F606889E046
:080A12000E943006CF91089507
:100A1A0057FD9058440F551F59F05F3F71F04795A5
:100A2A00880F97FB991F61F09F3F79F0879508958A
:100A3A00121613061406551FF2CF4695F1DF08C0A9
:100A4A00161617061806991FF1CF869571056105C6
:040A5A00089408955F
:100A5E0097FB10F8169400080F93083098F0085082
:100A6E00232F342F452F562F672F782F892F902D18
:100A7E00F4CF0594979587957795679557954795F4
:0C0A8E00379527950A95AAF70F91089557
:100A9A001F93CF93DF930F92CDB7DEB7182FBE0106
:100AAA006F5F7F4F8DE10E94EC0569816F7020E1D5
:100ABA00129FC0011124682B8DE10E9430060F900D
:080ACA00DF91CF911F91089507
:100AD2001F93CF93DF930F92CDB7DEB7182FBE01CE
:100AE2006F5F7F4F8EE10E94EC0569816F7020E19C
:100AF200129FC0011124682B8EE10E9430060F90D4
:080B0200DF91CF911F910895CE
:100B0A001F93CF93DF930F92CDB7DEB7182FBE0195
:100B1A006F5F7F4F8DE10E94EC056981962F917F6F
:100B2A00612F660F692B8DE10E9430060F90DF91CD
:060B3A00CF911F91089508
:100B4000813FB0F4893738F490E08D9765E070E02C
:100B50000E94590606C090E04E966AE070E00E943E
:100B600059066F7160628BE00E94300681E0089543
:040B700080E0089584
:100B7400E0ECF8E084838381882324F40AC001979D
:100B840029F40DC089EE93E0E0ECF8E02381222300
:100B9400B4F78091C408FB01808380E0089581E06C
:020BA4000895B2
:100BA6000F93083090F0982F872F762F652F542FAC
:100BB600432F322F22270850F4CF220F331F441F12
:100BC600551F661F771F881F991F0A95B2F70F9149
:020BD600089580
:100BD8000F931F93CF93C82F8B010E9417078C2F59
:100BE8008F770E94B506C82FC8010E943D07C82B01
:0E0BF8000E941D078C2FCF911F910F91089521
:100C06000F931F93CF93FC018081882359F08F01A6
:100C1600C0E00E94F306CF5FF801EC0FF11D808162
:0E0C26008111F7CF80E0CF911F910F910895BB
:100C3400E0E0F4E080818061808380818F7D808327
:100C4400808180648083808180688083E0ECF8E028
:0C0C540081E380838181818380E008952A
:100C6000CF93DF93C82FD62F0E9417078C2F806851
:100C70000E94B506C82F8D2F0E94B506C82B0E9472
:0A0C80001D078C2FDF91CF9108951E
:100C8A00CF93DF930F92CDB7DEB7BE016F5F7F4F71
:100C9A008DE10E94EC0569816E7F8DE10E9430062C
:080CAA000F90DF91CF91089536
:100CB20097FB072E16F4009407D077FD09D00E9407
:100CC2006D0607FC05D03EF4909581959F4F0895DF
:080CD200709561957F4F0895B4
:100CDA00AA1BBB1B51E107C0AA1FBB1FA617B70758
:100CEA0010F0A61BB70B881F991F5A95A9F7809574
:080CFA009095BC01CD010895A5
:100D0200CF93DF93403261F0EC018EE297E40E94D0
:100D12000306CE010E94030684E397E40E940306C1
:060D2200DF91CF9108955E
:100D2800092E0394000C11F4882352F0BB0F40F4F1
:100D3800BF2B11F460FF04C06F5F7F4F8F4F9F4F31
:020D480008950C
:100D4A00E0E0FAE081E08287118281858E7F8187E7
:100D5A008CED92E386A397A38DE0808380E00895CB
:100D6A00CF93DF930F92CDB7DEB7BE016F5F7F4F90
:0C0D7A000E94BA050F90DF91CF91089500
:100D8600689401C0E8948F929F92CF93DF930E945C
:0C0D96004603DF91CF919F908F9008954D
:100DA2008F938091090483FF06C081E08093013113
:0A0DB20088E0809309048F911895E2
:100DBC00EC010E9452070E945107CE010E9453077A
:060DCC00CE010E944F075A
:100DD2007561727420696E697469616C69736564A6
:030DE2000D0A00F7
:100DE600E0E4F8E0948195FFFDCF809342080895F2
:0E0DF6005058BB27AA270E9437020C9494067F
:0E0E040000240A94161617061806090608950B
:0E0E120000240A94121613061406050608950D
:0E0E2000E894BB2766277727CB0197F9089542
:0C0E2E00E0E0F4E084818F778483089575
:0C0E3A00E0E0F4E0848180688483089587
:0C0E460097F99F6780E870E060E0089575
:0A0E520060E881E00E943006089578
:0A0E5C0061E881E00E94300608956D
:0A0E66008093FF309093003108954F
:0A0E700065E881E00E943006089555
:0A0E7A00BC0180E00E94BA05089553
:080E84000E94F1000C94940699
:080E8C000E94CD010C949406B4
:060E94009FEF80EC0895C1
:040E9A000C940000B4
:040E9E000E9473003B
:020EA2000895B1
:020EA4000895AF
:020EA6000895AD
:00000001FF
