:100000000C944B000C945E060C945E060C945E06F9
:100010000C945E060C945E060C94E2050C945E064D
:100020000C945E060C945E060C945E060C945E06C0
:100030000C945E060C945E060C945E060C945E06B0
:100040000C945E060C945E060C945E060C945E06A0
:100050000C945E060C945E060C945E060C945E0690
:100060000C945E060C945E060C945E060C945E0680
:100070000C945E060C945E060C945E060C945E0670
:100080000C945E060C945E060C945E060C945E0660
:1000900030003102800011241FBECFEFCDBFDFE35F
:1000A000DEBFE0E9F0E040E017C0B591A5913591E1
:1000B0002591059107FD0CC095918591EF01F92FD0
:1000C000E82F05900D92A217B307D9F7FE0104C0DF
:1000D0001D92A217B307E1F7E539F40731F70E9443
:0A00E000A5040C94EF05F894FFCF7F
:1000EA00CF93DF9300D0CDB7DEB70E942305E0E0BF
:1000FA00F4E08181846081838181877F8183838920
:10010A008260838B84818460848382EC92EA019783
:10011A00F1F700C084818B7F848381E493E00197A7
:10012A00F1F700008481846084838DE890E201976E
:10013A00F1F700000E942E06BE016F5F7F4F82E436
:10014A000E940C058981823109F040C00E943A065A
:10015A0060E881E00E94510560E47EE08FEC99E15D
:10016A000E948A0260E08EE00E94510560E08FE002
:10017A000E945105BE016E5F7F4F8CE00E940C0504
:10018A006A8163608CE00E94510564E086E20E9405
:10019A00510560E080E40E94510587E00E94520404
:1001AA0087E00E946E0481E00E948A0484E10E9432
:1001BA00CB030E9466050E943F0682EC92EA0197F1
:1001CA00F1F700C00E94490680E001C081E00F906B
:0801DA000F90DF91CF91089511
:1001E20010C00E941A0658F00E94130640F029F42B
:1001F2005F3F29F00C94340651110C9422060C94A2
:100202005B060E94120468F39923B1F3552391F31C
:10021200951B550BBB27AA2762177307840738F073
:100222009F5F5F4F220F331F441FAA1FA9F335D0D0
:100232000E2E3AF0E0E832D091505040E695001C84
:10024200CAF72BD0FE2F29D0660F771F881FBB1F3E
:10025200261737074807AB07B0E809F0BB0B802D1C
:10026200BF01FF2793585F4F3AF09E3F510578F048
:100272000C9434060C9422065F3FE4F3983ED4F3C8
:10028200869577956795B795F7959F5FC9F7880F1C
:10029200911D9695879597F90895E1E0660F771F6E
:1002A200881FBB1F621773078407BA0720F0621BFF
:0E02B200730B840BBA0BEE1F88F7E0950895CE
:1002C0000FC00E94130638F00E941A0620F09523F2
:1002D00011F00C9434060C945B0611240C94220645
:1002E0000E94120470F3959FC1F3950F50E0551FC3
:1002F000629FF001729FBB27F00DB11D639FAA277B
:10030000F00DB11DAA1F649F6627B00DA11D661FC9
:10031000829F2227B00DA11D621F739FB00DA11DEA
:10032000621F839FA00D611D221F749F3327A00DA4
:10033000611D231F849F600D211D822F762F6A2F40
:1003400011249F5750409AF0F1F088234AF0EE0FA5
:10035000FF1FBB1F661F771F881F91505040A9F7D2
:100360009E3F510580F00C9434060C9422065F3FAA
:10037000E4F3983ED4F3869577956795B795F7950E
:10038000E7959F5FC1F7FE2B880F911D9695879586
:0403900097F908953C
:1003940011C00E94130638F00E941A0620F039F4A6
:1003A4009F3F19F426F40C945B060EF4E095E7FBEA
:1003B4000C943406E92F0E94120458F3BA1762070A
:1003C40073078407950720F079F4A6F50C942106A9
:1003D4000EF4E0950B2EBA2FA02D0B01B90190015C
:1003E4000C01CA01A0011124FF27591B99F0593FA0
:1003F40050F4503E68F11A16F040A22F232F342FE8
:100404004427585FF3CF469537952795A795F04035
:100414005395C9F77EF41F16BA0B620B730B840B4A
:10042400BAF09150A1F0FF0FBB1F661F771F881F02
:10043400C2F70EC0BA0F621F731F841F48F487955A
:1004440077956795B795F7959E3F08F0B0CF93954C
:0E045400880F08F09927EE0F97958795089569
:100462001F93CF93DF9300D00F92CDB7DEB7809169
:100472000131882309F446C0BE016E5F7F4F82E1DD
:100482000E940C056A8182E10E9451058A8185FFE2
:100492000CC0E091FF30F0910031309789F140E2D9
:1004A20060E080E090E009952BC086FF29C0BE0184
:1004B2006D5F7F4F83E10E940C05BE016F5F7F4F2E
:1004C20080E10E940C0569818DE00E9451056B81DB
:1004D200662361F010E0612F70E06050704D80E0A3
:1004E2000E940C051F5F6B811617A8F3E091FF3085
:1004F200F0910031309721F040E480E090E30995DB
:10050200109201312396CDBFDEBFDF91CF911F91B3
:0205120008954A
:10051400AF92BF92CF92DF92EF92FF920F931F930D
:10052400CF93DF93DC01CB01282F392F4A2F5B2F88
:1005340060E070E080E090E003E10E94F304A12C0D
:100544000F2EF8E4BF2EF02D0F2EF8EECF2EF02D47
:10055400DD24D394E12CF12C00E010E00E94D605B8
:10056400C22FB32EC42ED52EE62EF72E182FD92F38
:1005740000E10E943604622F86E00E9451052C2F70
:100584003B2D4C2D5D2D6E2D7F2D812F9D2F08E051
:100594000E943604622F87E00E9451056C2F88E088
:1005A4000E945105DF91CF911F910F91FF90EF9021
:0A05B400DF90CF90BF90AF90089544
:1005BE0088249924F401E401B0E49F93AA279A15A4
:1005CE008B049C04ED05FE05CF05D007A10798F41A
:1005DE00AD2FDC2FCF2FFE2FE92D982C892E982FA3
:1005EE00872F762F652F542F432F322F2227B85067
:1005FE0031F7BF9127C01B2EBF91BB27220F331F90
:10060E00441F551F661F771F881F991F881C991C32
:10061E00EE1FFF1FCC1FDD1FAA1FBB1F8A149B04DA
:10062E00EC05FD05CE05DF05A007B10748F08A18D9
:10063E009B08EC09FD09CE09DF09A00BB10B216067
:10064E001A94E1F62EF49401AF01BE01CD01000C17
:02065E000895FD
:10066000E89409C097FB3EF490958095709561954C
:100670007F4F8F4F9F4F9923A9F0F92F96E9BB2702
:100680009395F695879577956795B795F111F8CF7E
:10069000FAF4BB0F11F460FF1BC06F5F7F4F8F4FE9
:1006A0009F4F16C0882311F096E911C0772321F0DF
:1006B0009EE8872F762F05C0662371F096E8862F77
:1006C00070E060E02AF09A95660F771F881FDAF7CE
:0A06D000880F9695879597F9089515
:1006DA00E0EAF4E020812160208320812D7F2083BD
:1006EA000E94300320E030E040E851E40E945706BF
:1006FA009B01AC0164E573E78BE49DE40E94530619
:10070A0020E030E040E05FE30E940D060E949C0377
:10071A00E0E4F8E0608771878681806C868383E0F5
:0E072A00878384EF9BE40E943A0580E00895E7
:100738000E941A0488F09F5798F0B92F9927B7514B
:10074800B0F0E1F0660F771F881F991F1AF0BA956D
:10075800C9F714C0B13091F00E942106B1E00895A4
:100768000C942106672F782F8827B85F39F0B93F96
:10077800CCF3869577956795B395D9F73EF4909520
:0E0788008095709561957F4F8F4F9F4F08951C
:10079600CF93C82F86E90E94C004C23170F067E883
:1007A6008DE40E945105C53108F0C4E1C5506C2F97
:1007B600606889E00E9451050DC0C23008F4C2E0AD
:1007C60064E88DE40E9451056EEF6C0F606889E065
:0807D6000E945105CF91089526
:1007DE006275663A20000D0A006C6F726120636FBD
:1007EE00756C64206E6F7420696E697469616C69D2
:1007FE0073650D0A006C6F726120737563636573A8
:10080E007366756C6C7920696E697469616C697355
:05081E0065640D0A00F5
:1008240057FD9058440F551F59F05F3F71F047959D
:10083400880F97FB991F61F09F3F79F08795089582
:10084400121613061406551FF2CF4695F1DF08C0A1
:10085400161617061806991FF1CF869571056105BE
:040864000894089557
:1008680097FB10F8169400080F93083098F008507A
:10087800232F342F452F562F672F782F892F902D10
:10088800F4CF0594979587957795679557954795EC
:0C089800379527950A95AAF70F9108954F
:1008A4001F93CF93DF930F92CDB7DEB7182FBE01FE
:1008B4006F5F7F4F8DE10E940C0569816F7020E1AD
:1008C400129FC0011124682B8DE10E9451050F90E5
:0808D400DF91CF911F910895FF
:1008DC001F93CF93DF930F92CDB7DEB7182FBE01C6
:1008EC006F5F7F4F8EE10E940C0569816F7020E174
:1008FC00129FC0011124682B8EE10E9451050F90AC
:08090C00DF91CF911F910895C6
:100914001F93CF93DF930F92CDB7DEB7182FBE018D
:100924006F5F7F4F8DE10E940C056981962F917F47
:10093400612F660F692B8DE10E9451050F90DF91A5
:06094400CF911F91089500
:10094A0060E875E280E090E00E946D030E94750005
:10095A00811105C087EE97E40E943A05FFCF83E034
:10096A0098E40E943A0582EA95E00E944406789447
:06097A000E943102FDCFD6
:10098000813FB0F4893738F490E08D9765E070E0EE
:100990000E947A0506C090E04E966AE070E00E94E0
:1009A0007A056F7160628BE00E94510581E00895C5
:0409B00080E0089546
:1009B400E0ECF8E084838381882324F40AC001975F
:1009C40029F40DC089EE93E0E0ECF8E023812223C2
:1009D400B4F78091C408FB01808380E0089581E02E
:0209E400089574
:1009E6000F93083090F0982F872F762F652F542F6E
:1009F600432F322F22270850F4CF220F331F441FD4
:100A0600551F661F771F881F991F0A95B2F70F910A
:020A1600089541
:100A18000F931F93CF93C82F8B010E9428068C2F0A
:100A28008F770E94C605C82FC8010E944E06C82BA2
:0E0A38000E942E068C2FCF911F910F910895D2
:100A4600E0E0F4E080818061808380818F7D808317
:100A5600808180648083808180688083E0ECF8E018
:0E0A660081E3808381818360818380E0089535
:100A74000F931F93CF93FC018081882359F08F013A
:100A8400C0E00E940406CF5FF801EC0FF11D8081E5
:0E0A94008111F7CF80E0CF911F910F9108954F
:100AA200CF93DF93C82FD62F0E9428068C2F806801
:100AB2000E94C605C82F8D2F0E94C605C82B0E9412
:0A0AC2002E068C2FDF91CF910895CE
:100ACC00CF93DF930F92CDB7DEB7BE016F5F7F4F31
:100ADC008DE10E940C0569816E7F8DE10E945105AC
:080AEC000F90DF91CF910895F6
:100AF40097FB072E16F4009407D077FD09D00E94C7
:100B04008E0507FC05D03EF4909581959F4F08957E
:080B1400709561957F4F089573
:100B1C00AA1BBB1B51E107C0AA1FBB1FA617B70717
:100B2C0010F0A61BB70B881F991F5A95A9F7809533
:080B3C009095BC01CD01089564
:100B4400CF93DF93403261F0EC018EED97E40E9485
:100B54003A05CE010E943A0584EE97E40E943A05D4
:060B6400DF91CF9108951E
:100B6A00092E0394000C11F4882352F0BB0F40F4B1
:100B7A00BF2B11F460FF04C06F5F7F4F8F4F9F4FF1
:020B8A000895CC
:100B8C00CF93DF930F92CDB7DEB7BE016F5F7F4F70
:0C0B9C000E94DA040F90DF91CF910895C1
:100BA800689401C0E8948F929F92CF93DF930E943C
:0C0BB800DF02DF91CF919F908F90089595
:100BC4008F938091090483FF06C081E080930131F3
:0A0BD40088E0809309048F911895C2
:100BDE00EC010E9463060E946206CE010E9464062A
:060BEE00CE010E9460062A
:100BF4007561727420696E697469616C6973656486
:030C04000D0A00D6
:100C0800E0E4F8E0948195FFFDCF809342080895D1
:0E0C18005058BB27AA270E94CA010C94B505AC
:0E0C260000240A9416161706180609060895EB
:0E0C340000240A9412161306140605060895ED
:0E0C4200E894BB2766277727CB0197F9089522
:0C0C5000E0E0F4E084818F778483089555
:0C0C5C00E0E0F4E0848180688483089567
:0C0C680097F99F6780E870E060E0089555
:0A0C740060E881E00E945105089538
:0A0C7E0061E881E00E94510508952D
:0A0C88008093FF309093003108952F
:0A0C920065E881E00E945105089515
:0A0C9C00BC0180E00E94DA04089514
:080CA6000E94F1000C94B50559
:080CAE000E9460010C94B505E1
:060CB6009FEF80EC0895A1
:040CBC000C94000094
:040CC0000E9473001B
:020CC400089591
:020CC60008958F
:020CC80008958D
:00000001FF
