:100000000C944B000C9439070C9439070C94390765
:100010000C9439070C9439070C94BD060C94CD034D
:100020000C9439070C9439070C9439070C94390750
:100030000C9439070C9439070C9439070C94390740
:100040000C9439070C9439070C9439070C94390730
:100050000C9439070C9439070C9439070C94390720
:100060000C9439070C9439070C9439070C94390710
:100070000C9439070C9439070C9439070C94390700
:100080000C9439070C9439070C9439070C943907F0
:1000900030003102800011241FBECFEFCDBFDFE35F
:1000A000DEBFE0E9F0E040E017C0B591A5913591E1
:1000B0002591059107FD0CC095918591EF01F92FD0
:1000C000E82F05900D92A217B307D9F7FE0104C0DF
:1000D0001D92A217B307E1F7E539F40731F70E9443
:0A00E000AD040C94CA06F894FFCF9B
:1000EA00CF93DF9300D0CDB7DEB70E940606E0E0DB
:1000FA00F4E08181846081838181877F8183838920
:10010A008260838B84818460848382EC92EA019783
:10011A00F1F700C084818B7F848381E493E00197A7
:10012A00F1F700008481846084838DE890E201976E
:10013A00F1F700000E940907BE016F5F7F4F82E45A
:10014A000E94D8058981823109F040C00E941507B2
:10015A0060E881E00E941C0660E47EE08FEC99E191
:10016A000E948A0260E08EE00E941C0660E08FE036
:10017A000E941C06BE016E5F7F4F8CE00E94D8056C
:10018A006A8163608CE00E941C0664E086E20E9439
:10019A001C0660E080E40E941C0687E00E94390584
:1001AA0087E00E94550581E00E94710584E10E9462
:1001BA00D5040E9431060E941A0782EC92EA01973E
:1001CA00F1F700C00E94240780E001C081E00F908F
:0801DA000F90DF91CF91089511
:1001E20010C00E94F50658F00E94EE0640F029F475
:1001F2005F3F29F00C940F0751110C94FD060C94EB
:1002020036070E94F90468F39923B1F3552391F359
:10021200951B550BBB27AA2762177307840738F073
:100222009F5F5F4F220F331F441FAA1FA9F335D0D0
:100232000E2E3AF0E0E832D091505040E695001C84
:10024200CAF72BD0FE2F29D0660F771F881FBB1F3E
:10025200261737074807AB07B0E809F0BB0B802D1C
:10026200BF01FF2793585F4F3AF09E3F510578F048
:100272000C940F070C94FD065F3FE4F3983ED4F311
:10028200869577956795B795F7959F5FC9F7880F1C
:10029200911D9695879597F90895E1E0660F771F6E
:1002A200881FBB1F621773078407BA0720F0621BFF
:0E02B200730B840BBA0BEE1F88F7E0950895CE
:1002C0000FC00E94EE0638F00E94F50620F095233C
:1002D00011F00C940F070C94360711240C94FD06B2
:1002E0000E94F90470F3959FC1F3950F50E0551FDC
:1002F000629FF001729FBB27F00DB11D639FAA277B
:10030000F00DB11DAA1F649F6627B00DA11D661FC9
:10031000829F2227B00DA11D621F739FB00DA11DEA
:10032000621F839FA00D611D221F749F3327A00DA4
:10033000611D231F849F600D211D822F762F6A2F40
:1003400011249F5750409AF0F1F088234AF0EE0FA5
:10035000FF1FBB1F661F771F881F91505040A9F7D2
:100360009E3F510580F00C940F070C94FD065F3FF3
:10037000E4F3983ED4F3869577956795B795F7950E
:10038000E7959F5FC1F7FE2B880F911D9695879586
:0403900097F908953C
:1003940011C00E94EE0638F00E94F50620F039F4F0
:1003A4009F3F19F426F40C9436070EF4E095E7FB0E
:1003B4000C940F07E92F0E94F90458F3BA17620747
:1003C40073078407950720F079F4A6F50C94FC06CE
:1003D4000EF4E0950B2EBA2FA02D0B01B90190015C
:1003E4000C01CA01A0011124FF27591B99F0593FA0
:1003F40050F4503E68F11A16F040A22F232F342FE8
:100404004427585FF3CF469537952795A795F04035
:100414005395C9F77EF41F16BA0B620B730B840B4A
:10042400BAF09150A1F0FF0FBB1F661F771F881F02
:10043400C2F70EC0BA0F621F731F841F48F487955A
:1004440077956795B795F7959E3F08F0B0CF93954C
:0E045400880F08F09927EE0F97958795089569
:100462001F93CF93DF9300D00F92CDB7DEB7809169
:100472000131882309F446C0BE016E5F7F4F82E1DD
:100482000E94D8056A8182E10E941C068A8185FF4A
:100492000CC0E091FF30F0910031309789F140E2D9
:1004A20060E080E090E009952BC086FF29C0BE0184
:1004B2006D5F7F4F83E10E94D805BE016F5F7F4F62
:1004C20080E10E94D80569818DE00E941C066B8143
:1004D200662361F010E0612F70E06050704D80E0A3
:1004E2000E94D8051F5F6B811617A8F3E091FF30B9
:1004F200F0910031309721F040E480E090E30995DB
:10050200109201312396CDBFDEBFDF91CF911F91B3
:0205120008954A
:10051400AF92BF92CF92DF92EF92FF920F931F930D
:10052400CF93DF93DC01CB01282F392F4A2F5B2F88
:1005340060E070E080E090E003E10E94BF05A12C40
:100544000F2EF8E4BF2EF02D0F2EF8EECF2EF02D47
:10055400DD24D394E12CF12C00E010E00E94B106DC
:10056400C22FB32EC42ED52EE62EF72E182FD92F38
:1005740000E10E941D05622F86E00E941C062C2FBC
:100584003B2D4C2D5D2D6E2D7F2D812F9D2F08E051
:100594000E941D05622F87E00E941C066C2F88E0D4
:1005A4000E941C06DF91CF911F910F91FF90EF9055
:0A05B400DF90CF90BF90AF90089544
:1005BE00AF92BF92DF92EF92FF920F931F93CF9362
:1005CE00DF930F92CDB7DEB76623D1F1D62E5C0145
:1005DE000E941A0760E08DE00E941C0685019FEFC5
:1005EE009D0DE92EF12C8FEFE81AF80AEA0CFB1C90
:1005FE00F80161918F0180E00E941C060E151F0507
:10060E00B9F76D2D82E20E941C0663E881E00E941C
:10061E001C06BE016F5F7F4F82E10E94D805698183
:10062E0063FD09C0BE016F5F7F4F82E10E94D80556
:10063E00698163FFF7CF82E10E941C060E942407A6
:10064E000F90DF91CF911F910F91FF90EF90DF9060
:06065E00BF90AF9008956B
:1006640088249924F401E401B0E49F93AA279A15FD
:100674008B049C04ED05FE05CF05D007A10798F473
:10068400AD2FDC2FCF2FFE2FE92D982C892E982FFC
:10069400872F762F652F542F432F322F2227B850C0
:1006A40031F7BF9127C01B2EBF91BB27220F331FE9
:1006B400441F551F661F771F881F991F881C991C8C
:1006C400EE1FFF1FCC1FDD1FAA1FBB1F8A149B0434
:1006D400EC05FD05CE05DF05A007B10748F08A1833
:1006E4009B08EC09FD09CE09DF09A00BB10B2160C1
:1006F4001A94E1F62EF49401AF01BE01CD01000C71
:02070400089556
:100706006275663A20000D0A0052544320636F75E5
:100716006C64206E6F7420696E697469616C6973AC
:10072600650D0A00525443207375636365737366DF
:10073600756C6C7920696E697469616C697365643E
:100746000D0A006C6F726120636F756C64206E6FAA
:100756007420696E697469616C6973650D0A006C51
:100766006F7261207375636365737366756C6C79FC
:1007760020696E697469616C697365640D0A00723B
:100786007463207469636B0D0A00FFFFFFFF636FDC
:03079600726B0083
:10079A001F920F920FB60F9211242F933F934F93EC
:1007AA005F936F937F938F939F93AF93BF93EF93CF
:1007BA00FF93CF93DF93CDB7DEB72997CDBFDEBFC7
:1007CA0089E0E0E9F7E4DE01119601900D928A953D
:1007DA00E1F769E0CE0101960E94DF0285E897E41D
:1007EA000E94EF05E0E0FAE083858170838729960D
:1007FA00CDBFDEBFDF91CF91FF91EF91BF91AF9156
:10080A009F918F917F916F915F914F913F912F911E
:0A081A000F900FBE0F901F9018956D
:10082400E89409C097FB3EF4909580957095619586
:100834007F4F8F4F9F4F9923A9F0F92F96E9BB273C
:100844009395F695879577956795B795F111F8CFB8
:10085400FAF4BB0F11F460FF1BC06F5F7F4F8F4F23
:100864009F4F16C0882311F096E911C0772321F019
:100874009EE8872F762F05C0662371F096E8862FB1
:1008840070E060E02AF09A95660F771F881FDAF708
:0A089400880F9695879597F908954F
:10089E00E0EAF4E020812160208320812D7F2083F7
:1008AE000E94120420E030E040E851E40E9432073A
:1008BE009B01AC0164E573E78BE49DE40E942E0777
:1008CE0020E030E040E05FE30E94E8060E947E04F4
:1008DE00E0E4F8E0608771878681806C868383E030
:0E08EE0087838AEA9DE40E94EF0580E008956A
:1008FC000E94010588F09F5798F0B92F9927B7519E
:10090C00B0F0E1F0660F771F881F991F1AF0BA95A7
:10091C00C9F714C0B13091F00E94FC06B1E0089503
:10092C000C94FC06672F782F8827B85F39F0B93FF5
:10093C00CCF3869577956795B395D9F73EF490955A
:0E094C008095709561957F4F8F4F9F4F089556
:10095A0060E875E280E090E00E944F040E949106F0
:10096A00882329F08FE097E40E94EF05FFCF8AE2FF
:10097A0097E40E94EF050E947500882329F089E414
:10098A0097E40E94EF05FFCF85E697E40E94EF0502
:10099A008DE696E00E941F0778940E943102FDCFEF
:1009AA00CF93C82F86E90E948C05C23170F067E8A0
:1009BA008DE40E941C06C53108F0C4E1C5506C2FB5
:1009CA00606889E00E941C060DC0C23008F4C2E0CB
:1009DA0064E88DE40E941C066EEF6C0F606889E083
:0809EA000E941C06CF91089544
:1009F20057FD9058440F551F59F05F3F71F04795CE
:100A0200880F97FB991F61F09F3F79F087950895B2
:100A1200121613061406551FF2CF4695F1DF08C0D1
:100A2200161617061806991FF1CF869571056105EE
:040A32000894089587
:100A360097FB10F8169400080F93083098F00850AA
:100A4600232F342F452F562F672F782F892F902D40
:100A5600F4CF05949795879577956795579547951C
:0C0A6600379527950A95AAF70F9108957F
:100A72001F93CF93DF930F92CDB7DEB7182FBE012E
:100A82006F5F7F4F8DE10E94D80569816F7020E111
:100A9200129FC0011124682B8DE10E941C060F9049
:080AA200DF91CF911F9108952F
:100AAA001F93CF93DF930F92CDB7DEB7182FBE01F6
:100ABA006F5F7F4F8EE10E94D80569816F7020E1D8
:100ACA00129FC0011124682B8EE10E941C060F9010
:080ADA00DF91CF911F910895F7
:100AE2001F93CF93DF930F92CDB7DEB7182FBE01BE
:100AF2006F5F7F4F8DE10E94D8056981962F917FAC
:100B0200612F660F692B8DE10E941C060F90DF9109
:060B1200CF911F91089530
:100B1800813FB0F4893738F490E08D9765E070E054
:100B28000E94450606C090E04E966AE070E00E947A
:100B380045066F7160628BE00E941C0681E0089593
:040B480080E00895AC
:100B4C00E0ECF8E084838381882324F40AC00197C5
:100B5C0029F40DC089EE93E0E0ECF8E02381222328
:100B6C00B4F78091C408FB01808380E0089581E094
:020B7C000895DA
:100B7E000F93083090F0982F872F762F652F542FD4
:100B8E00432F322F22270850F4CF220F331F441F3A
:100B9E00551F661F771F881F991F0A95B2F70F9171
:020BAE000895A8
:100BB0000F931F93CF93C82F8B010E9403078C2F95
:100BC0008F770E94A106C82FC8010E942907C82B51
:0E0BD0000E9409078C2FCF911F910F9108955D
:100BDE000F931F93CF93FC018081882359F08F01CF
:100BEE00C0E00E94DF06CF5FF801EC0FF11D80819F
:0E0BFE008111F7CF80E0CF911F910F910895E4
:100C0C00E0E0F4E080818061808380818F7D80834F
:100C1C00808180648083808180688083E0ECF8E050
:0C0C2C0081E380838181818380E0089552
:100C3800CF93DF93C82FD62F0E9403078C2F80688D
:100C48000E94A106C82F8D2F0E94A106C82B0E94C2
:0A0C580009078C2FDF91CF9108955A
:100C6200CF93DF930F92CDB7DEB7BE016F5F7F4F99
:100C72008DE10E94D80569816E7F8DE10E941C067C
:080C82000F90DF91CF9108955E
:100C8A0097FB072E16F4009407D077FD09D00E942F
:100C9A00590607FC05D03EF4909581959F4F08951B
:080CAA00709561957F4F0895DC
:100CB200AA1BBB1B51E107C0AA1FBB1FA617B70780
:100CC20010F0A61BB70B881F991F5A95A9F780959C
:080CD2009095BC01CD010895CD
:100CDA00CF93DF93403261F0EC0186E097E40E9403
:100CEA00EF05CE010E94EF058CE097E40E94EF0524
:060CFA00DF91CF91089587
:100D0000092E0394000C11F4882352F0BB0F40F419
:100D1000BF2B11F460FF04C06F5F7F4F8F4F9F4F59
:020D2000089534
:100D2200E0E0FAE081E08287118281858E7F81870F
:100D32008CED92E386A397A38DE0808380E00895F3
:100D4200CF93DF930F92CDB7DEB7BE016F5F7F4FB8
:0C0D52000E94A6050F90DF91CF9108953C
:100D5E00689401C0E8948F929F92CF93DF930E9484
:0C0D6E003203DF91CF919F908F90089589
:100D7A008F938091090483FF06C081E0809301313B
:0A0D8A0088E0809309048F9118950A
:100D9400EC010E943E070E943D07CE010E943F07DE
:060DA400CE010E943B0796
:100DAA007561727420696E697469616C69736564CE
:030DBA000D0A001F
:100DBE00E0E4F8E0948195FFFDCF8093420808951A
:0E0DCE005058BB27AA270E94CA010C94800629
:0E0DDC0000240A941616170618060906089534
:0E0DEA0000240A941216130614060506089536
:0E0DF800E894BB2766277727CB0197F908956B
:0C0E0600E0E0F4E084818F77848308959D
:0C0E1200E0E0F4E08481806884830895AF
:0C0E1E0097F99F6780E870E060E008959D
:0A0E2A0060E881E00E941C060895B4
:0A0E340061E881E00E941C060895A9
:0A0E3E008093FF3090930031089577
:0A0E480065E881E00E941C06089591
:0A0E5200BC0180E00E94A60508958F
:080E5C000E94F1000C948006D5
:080E64000E9460010C9480065D
:060E6C009FEF80EC0895E9
:040E72000C940000DC
:040E76000E94730063
:020E7A000895D9
:020E7C000895D7
:020E7E000895D5
:00000001FF
